{
  "contractName": "Ecommerce",
  "abi": [
    {
      "constant": true,
      "inputs": [],
      "name": "lastPendingBuyerOrder",
      "outputs": [
        {
          "name": "",
          "type": "uint256"
        }
      ],
      "payable": false,
      "stateMutability": "view",
      "type": "function"
    },
    {
      "constant": true,
      "inputs": [
        {
          "name": "",
          "type": "address"
        },
        {
          "name": "",
          "type": "uint256"
        }
      ],
      "name": "completedSellerOrders",
      "outputs": [
        {
          "name": "id",
          "type": "uint256"
        },
        {
          "name": "nameSurname",
          "type": "string"
        },
        {
          "name": "lineOneDirection",
          "type": "string"
        },
        {
          "name": "lineTwoDirection",
          "type": "string"
        },
        {
          "name": "city",
          "type": "bytes32"
        },
        {
          "name": "stateRegion",
          "type": "bytes32"
        },
        {
          "name": "postalCode",
          "type": "uint256"
        },
        {
          "name": "country",
          "type": "bytes32"
        },
        {
          "name": "phone",
          "type": "uint256"
        },
        {
          "name": "state",
          "type": "string"
        }
      ],
      "payable": false,
      "stateMutability": "view",
      "type": "function"
    },
    {
      "constant": true,
      "inputs": [
        {
          "name": "",
          "type": "address"
        },
        {
          "name": "",
          "type": "uint256"
        }
      ],
      "name": "completedBuyerOrders",
      "outputs": [
        {
          "name": "id",
          "type": "uint256"
        },
        {
          "name": "nameSurname",
          "type": "string"
        },
        {
          "name": "lineOneDirection",
          "type": "string"
        },
        {
          "name": "lineTwoDirection",
          "type": "string"
        },
        {
          "name": "city",
          "type": "bytes32"
        },
        {
          "name": "stateRegion",
          "type": "bytes32"
        },
        {
          "name": "postalCode",
          "type": "uint256"
        },
        {
          "name": "country",
          "type": "bytes32"
        },
        {
          "name": "phone",
          "type": "uint256"
        },
        {
          "name": "state",
          "type": "string"
        }
      ],
      "payable": false,
      "stateMutability": "view",
      "type": "function"
    },
    {
      "constant": true,
      "inputs": [],
      "name": "lastPendingSellerOrder",
      "outputs": [
        {
          "name": "",
          "type": "uint256"
        }
      ],
      "payable": false,
      "stateMutability": "view",
      "type": "function"
    },
    {
      "constant": true,
      "inputs": [
        {
          "name": "",
          "type": "uint256"
        }
      ],
      "name": "products",
      "outputs": [
        {
          "name": "id",
          "type": "uint256"
        },
        {
          "name": "title",
          "type": "string"
        },
        {
          "name": "description",
          "type": "string"
        },
        {
          "name": "date",
          "type": "uint256"
        },
        {
          "name": "owner",
          "type": "address"
        },
        {
          "name": "price",
          "type": "uint256"
        },
        {
          "name": "image",
          "type": "string"
        }
      ],
      "payable": false,
      "stateMutability": "view",
      "type": "function"
    },
    {
      "constant": true,
      "inputs": [
        {
          "name": "",
          "type": "uint256"
        }
      ],
      "name": "orderById",
      "outputs": [
        {
          "name": "id",
          "type": "uint256"
        },
        {
          "name": "nameSurname",
          "type": "string"
        },
        {
          "name": "lineOneDirection",
          "type": "string"
        },
        {
          "name": "lineTwoDirection",
          "type": "string"
        },
        {
          "name": "city",
          "type": "bytes32"
        },
        {
          "name": "stateRegion",
          "type": "bytes32"
        },
        {
          "name": "postalCode",
          "type": "uint256"
        },
        {
          "name": "country",
          "type": "bytes32"
        },
        {
          "name": "phone",
          "type": "uint256"
        },
        {
          "name": "state",
          "type": "string"
        }
      ],
      "payable": false,
      "stateMutability": "view",
      "type": "function"
    },
    {
      "constant": true,
      "inputs": [
        {
          "name": "",
          "type": "uint256"
        }
      ],
      "name": "productById",
      "outputs": [
        {
          "name": "id",
          "type": "uint256"
        },
        {
          "name": "title",
          "type": "string"
        },
        {
          "name": "description",
          "type": "string"
        },
        {
          "name": "date",
          "type": "uint256"
        },
        {
          "name": "owner",
          "type": "address"
        },
        {
          "name": "price",
          "type": "uint256"
        },
        {
          "name": "image",
          "type": "string"
        }
      ],
      "payable": false,
      "stateMutability": "view",
      "type": "function"
    },
    {
      "constant": true,
      "inputs": [
        {
          "name": "",
          "type": "uint256"
        }
      ],
      "name": "orders",
      "outputs": [
        {
          "name": "id",
          "type": "uint256"
        },
        {
          "name": "nameSurname",
          "type": "string"
        },
        {
          "name": "lineOneDirection",
          "type": "string"
        },
        {
          "name": "lineTwoDirection",
          "type": "string"
        },
        {
          "name": "city",
          "type": "bytes32"
        },
        {
          "name": "stateRegion",
          "type": "bytes32"
        },
        {
          "name": "postalCode",
          "type": "uint256"
        },
        {
          "name": "country",
          "type": "bytes32"
        },
        {
          "name": "phone",
          "type": "uint256"
        },
        {
          "name": "state",
          "type": "string"
        }
      ],
      "payable": false,
      "stateMutability": "view",
      "type": "function"
    },
    {
      "constant": true,
      "inputs": [
        {
          "name": "",
          "type": "uint256"
        }
      ],
      "name": "productExists",
      "outputs": [
        {
          "name": "",
          "type": "bool"
        }
      ],
      "payable": false,
      "stateMutability": "view",
      "type": "function"
    },
    {
      "constant": true,
      "inputs": [],
      "name": "lastId",
      "outputs": [
        {
          "name": "",
          "type": "uint256"
        }
      ],
      "payable": false,
      "stateMutability": "view",
      "type": "function"
    },
    {
      "constant": true,
      "inputs": [
        {
          "name": "",
          "type": "address"
        },
        {
          "name": "",
          "type": "uint256"
        }
      ],
      "name": "sellerProducts",
      "outputs": [
        {
          "name": "id",
          "type": "uint256"
        },
        {
          "name": "title",
          "type": "string"
        },
        {
          "name": "description",
          "type": "string"
        },
        {
          "name": "date",
          "type": "uint256"
        },
        {
          "name": "owner",
          "type": "address"
        },
        {
          "name": "price",
          "type": "uint256"
        },
        {
          "name": "image",
          "type": "string"
        }
      ],
      "payable": false,
      "stateMutability": "view",
      "type": "function"
    },
    {
      "constant": true,
      "inputs": [
        {
          "name": "",
          "type": "address"
        },
        {
          "name": "",
          "type": "uint256"
        }
      ],
      "name": "pendingBuyerOrders",
      "outputs": [
        {
          "name": "id",
          "type": "uint256"
        },
        {
          "name": "nameSurname",
          "type": "string"
        },
        {
          "name": "lineOneDirection",
          "type": "string"
        },
        {
          "name": "lineTwoDirection",
          "type": "string"
        },
        {
          "name": "city",
          "type": "bytes32"
        },
        {
          "name": "stateRegion",
          "type": "bytes32"
        },
        {
          "name": "postalCode",
          "type": "uint256"
        },
        {
          "name": "country",
          "type": "bytes32"
        },
        {
          "name": "phone",
          "type": "uint256"
        },
        {
          "name": "state",
          "type": "string"
        }
      ],
      "payable": false,
      "stateMutability": "view",
      "type": "function"
    },
    {
      "constant": true,
      "inputs": [
        {
          "name": "",
          "type": "address"
        },
        {
          "name": "",
          "type": "uint256"
        }
      ],
      "name": "pendingSellerOrders",
      "outputs": [
        {
          "name": "id",
          "type": "uint256"
        },
        {
          "name": "nameSurname",
          "type": "string"
        },
        {
          "name": "lineOneDirection",
          "type": "string"
        },
        {
          "name": "lineTwoDirection",
          "type": "string"
        },
        {
          "name": "city",
          "type": "bytes32"
        },
        {
          "name": "stateRegion",
          "type": "bytes32"
        },
        {
          "name": "postalCode",
          "type": "uint256"
        },
        {
          "name": "country",
          "type": "bytes32"
        },
        {
          "name": "phone",
          "type": "uint256"
        },
        {
          "name": "state",
          "type": "string"
        }
      ],
      "payable": false,
      "stateMutability": "view",
      "type": "function"
    },
    {
      "constant": true,
      "inputs": [],
      "name": "token",
      "outputs": [
        {
          "name": "",
          "type": "address"
        }
      ],
      "payable": false,
      "stateMutability": "view",
      "type": "function"
    },
    {
      "inputs": [
        {
          "name": "_token",
          "type": "address"
        }
      ],
      "payable": false,
      "stateMutability": "nonpayable",
      "type": "constructor"
    },
    {
      "constant": false,
      "inputs": [
        {
          "name": "_title",
          "type": "string"
        },
        {
          "name": "_description",
          "type": "string"
        },
        {
          "name": "_price",
          "type": "uint256"
        },
        {
          "name": "_image",
          "type": "string"
        }
      ],
      "name": "publishProduct",
      "outputs": [],
      "payable": false,
      "stateMutability": "nonpayable",
      "type": "function"
    },
    {
      "constant": false,
      "inputs": [
        {
          "name": "_id",
          "type": "uint256"
        },
        {
          "name": "_nameSurname",
          "type": "string"
        },
        {
          "name": "_lineOneDirection",
          "type": "string"
        },
        {
          "name": "_lineTwoDirection",
          "type": "string"
        },
        {
          "name": "_city",
          "type": "bytes32"
        },
        {
          "name": "_stateRegion",
          "type": "bytes32"
        },
        {
          "name": "_postalCode",
          "type": "uint256"
        },
        {
          "name": "_country",
          "type": "bytes32"
        },
        {
          "name": "_phone",
          "type": "uint256"
        }
      ],
      "name": "buyProduct",
      "outputs": [],
      "payable": true,
      "stateMutability": "payable",
      "type": "function"
    },
    {
      "constant": false,
      "inputs": [
        {
          "name": "_id",
          "type": "uint256"
        }
      ],
      "name": "markOrderCompleted",
      "outputs": [],
      "payable": false,
      "stateMutability": "nonpayable",
      "type": "function"
    },
    {
      "constant": true,
      "inputs": [
        {
          "name": "_amount",
          "type": "uint256"
        }
      ],
      "name": "getLatestProductIds",
      "outputs": [
        {
          "name": "",
          "type": "uint256[]"
        }
      ],
      "payable": false,
      "stateMutability": "view",
      "type": "function"
    },
    {
      "constant": true,
      "inputs": [
        {
          "name": "_id",
          "type": "uint256"
        }
      ],
      "name": "getProduct",
      "outputs": [
        {
          "name": "id",
          "type": "uint256"
        },
        {
          "name": "title",
          "type": "string"
        },
        {
          "name": "description",
          "type": "string"
        },
        {
          "name": "date",
          "type": "uint256"
        },
        {
          "name": "owner",
          "type": "address"
        },
        {
          "name": "price",
          "type": "uint256"
        },
        {
          "name": "image",
          "type": "string"
        }
      ],
      "payable": false,
      "stateMutability": "view",
      "type": "function"
    },
    {
      "constant": true,
      "inputs": [
        {
          "name": "_type",
          "type": "string"
        },
        {
          "name": "_owner",
          "type": "address"
        },
        {
          "name": "_amount",
          "type": "uint256"
        }
      ],
      "name": "getLatestOrderIds",
      "outputs": [
        {
          "name": "",
          "type": "uint256[]"
        }
      ],
      "payable": false,
      "stateMutability": "view",
      "type": "function"
    },
    {
      "constant": true,
      "inputs": [
        {
          "name": "_type",
          "type": "string"
        },
        {
          "name": "_owner",
          "type": "address"
        },
        {
          "name": "_id",
          "type": "uint256"
        }
      ],
      "name": "getOrder",
      "outputs": [
        {
          "name": "id",
          "type": "uint256"
        },
        {
          "name": "nameSurname",
          "type": "string"
        },
        {
          "name": "lineOneDirection",
          "type": "string"
        },
        {
          "name": "lineTwoDirection",
          "type": "string"
        },
        {
          "name": "city",
          "type": "bytes32"
        },
        {
          "name": "stateRegion",
          "type": "bytes32"
        },
        {
          "name": "postalCode",
          "type": "uint256"
        },
        {
          "name": "country",
          "type": "bytes32"
        },
        {
          "name": "phone",
          "type": "uint256"
        },
        {
          "name": "state",
          "type": "string"
        }
      ],
      "payable": false,
      "stateMutability": "view",
      "type": "function"
    },
    {
      "constant": true,
      "inputs": [
        {
          "name": "a",
          "type": "string"
        },
        {
          "name": "b",
          "type": "string"
        }
      ],
      "name": "compareStrings",
      "outputs": [
        {
          "name": "",
          "type": "bool"
        }
      ],
      "payable": false,
      "stateMutability": "pure",
      "type": "function"
    }
  ],
  "bytecode": "0x60806040523480156200001157600080fd5b5060405160208062007d4e833981018060405260208110156200003357600080fd5b810190808051906020019092919050505080600b60006101000a81548173ffffffffffffffffffffffffffffffffffffffff021916908373ffffffffffffffffffffffffffffffffffffffff16021790555050617cb880620000966000396000f3fe6080604052600436106101355760003560e01c8063a85c38ef116100ab578063c1302b341161006f578063c1302b3414611879578063d72b29f614611a6d578063df6711b014611caf578063f4baa9e214611cea578063f7a5a49314611f10578063fc0c546a1461215257610135565b8063a85c38ef1461128e578063af55ed64146114b0578063b9db15b414611503578063bed34bba146116d7578063c1292cc31461184e57610135565b80636473cbd8116100fd5780636473cbd81461087957806368756f7314610b525780636f6a920a14610b7d5780637acc0b2014610cc45780638d77eba514610e98578063a30b475f146110ba57610135565b806302949a0a1461013a578063144a9372146101655780632e394338146101f5578063427f0e4d146104375780635a56740f14610679575b600080fd5b34801561014657600080fd5b5061014f6121a9565b6040518082815260200191505060405180910390f35b34801561017157600080fd5b5061019e6004803603602081101561018857600080fd5b81019080803590602001909291905050506121af565b6040518080602001828103825283818151815260200191508051906020019060200280838360005b838110156101e15780820151818401526020810190506101c6565b505050509050019250505060405180910390f35b34801561020157600080fd5b5061024e6004803603604081101561021857600080fd5b81019080803573ffffffffffffffffffffffffffffffffffffffff1690602001909291908035906020019092919050505061228b565b604051808b81526020018060200180602001806020018a81526020018981526020018881526020018781526020018681526020018060200185810385528e818151815260200191508051906020019080838360005b838110156102be5780820151818401526020810190506102a3565b50505050905090810190601f1680156102eb5780820380516001836020036101000a031916815260200191505b5085810384528d818151815260200191508051906020019080838360005b83811015610324578082015181840152602081019050610309565b50505050905090810190601f1680156103515780820380516001836020036101000a031916815260200191505b5085810383528c818151815260200191508051906020019080838360005b8381101561038a57808201518184015260208101905061036f565b50505050905090810190601f1680156103b75780820380516001836020036101000a031916815260200191505b50858103825286818151815260200191508051906020019080838360005b838110156103f05780820151818401526020810190506103d5565b50505050905090810190601f16801561041d5780820380516001836020036101000a031916815260200191505b509e50505050505050505050505050505060405180910390f35b34801561044357600080fd5b506104906004803603604081101561045a57600080fd5b81019080803573ffffffffffffffffffffffffffffffffffffffff16906020019092919080359060200190929190505050612559565b604051808b81526020018060200180602001806020018a81526020018981526020018881526020018781526020018681526020018060200185810385528e818151815260200191508051906020019080838360005b838110156105005780820151818401526020810190506104e5565b50505050905090810190601f16801561052d5780820380516001836020036101000a031916815260200191505b5085810384528d818151815260200191508051906020019080838360005b8381101561056657808201518184015260208101905061054b565b50505050905090810190601f1680156105935780820380516001836020036101000a031916815260200191505b5085810383528c818151815260200191508051906020019080838360005b838110156105cc5780820151818401526020810190506105b1565b50505050905090810190601f1680156105f95780820380516001836020036101000a031916815260200191505b50858103825286818151815260200191508051906020019080838360005b83811015610632578082015181840152602081019050610617565b50505050905090810190601f16801561065f5780820380516001836020036101000a031916815260200191505b509e50505050505050505050505050505060405180910390f35b34801561068557600080fd5b506108776004803603608081101561069c57600080fd5b81019080803590602001906401000000008111156106b957600080fd5b8201836020820111156106cb57600080fd5b803590602001918460018302840111640100000000831117156106ed57600080fd5b91908080601f016020809104026020016040519081016040528093929190818152602001838380828437600081840152601f19601f8201169050808301925050505050505091929192908035906020019064010000000081111561075057600080fd5b82018360208201111561076257600080fd5b8035906020019184600183028401116401000000008311171561078457600080fd5b91908080601f016020809104026020016040519081016040528093929190818152602001838380828437600081840152601f19601f82011690508083019250505050505050919291929080359060200190929190803590602001906401000000008111156107f157600080fd5b82018360208201111561080357600080fd5b8035906020019184600183028401116401000000008311171561082557600080fd5b91908080601f016020809104026020016040519081016040528093929190818152602001838380828437600081840152601f19601f820116905080830192505050505050509192919290505050612827565b005b34801561088557600080fd5b506109696004803603606081101561089c57600080fd5b81019080803590602001906401000000008111156108b957600080fd5b8201836020820111156108cb57600080fd5b803590602001918460018302840111640100000000831117156108ed57600080fd5b91908080601f016020809104026020016040519081016040528093929190818152602001838380828437600081840152601f19601f820116905080830192505050505050509192919290803573ffffffffffffffffffffffffffffffffffffffff16906020019092919080359060200190929190505050612e56565b604051808b81526020018060200180602001806020018a81526020018981526020018881526020018781526020018681526020018060200185810385528e818151815260200191508051906020019080838360005b838110156109d95780820151818401526020810190506109be565b50505050905090810190601f168015610a065780820380516001836020036101000a031916815260200191505b5085810384528d818151815260200191508051906020019080838360005b83811015610a3f578082015181840152602081019050610a24565b50505050905090810190601f168015610a6c5780820380516001836020036101000a031916815260200191505b5085810383528c818151815260200191508051906020019080838360005b83811015610aa5578082015181840152602081019050610a8a565b50505050905090810190601f168015610ad25780820380516001836020036101000a031916815260200191505b50858103825286818151815260200191508051906020019080838360005b83811015610b0b578082015181840152602081019050610af0565b50505050905090810190601f168015610b385780820380516001836020036101000a031916815260200191505b509e50505050505050505050505050505060405180910390f35b348015610b5e57600080fd5b50610b67613c93565b6040518082815260200191505060405180910390f35b348015610b8957600080fd5b50610c6d60048036036060811015610ba057600080fd5b8101908080359060200190640100000000811115610bbd57600080fd5b820183602082011115610bcf57600080fd5b80359060200191846001830284011164010000000083111715610bf157600080fd5b91908080601f016020809104026020016040519081016040528093929190818152602001838380828437600081840152601f19601f820116905080830192505050505050509192919290803573ffffffffffffffffffffffffffffffffffffffff16906020019092919080359060200190929190505050613c99565b6040518080602001828103825283818151815260200191508051906020019060200280838360005b83811015610cb0578082015181840152602081019050610c95565b505050509050019250505060405180910390f35b348015610cd057600080fd5b50610cfd60048036036020811015610ce757600080fd5b81019080803590602001909291905050506142c1565b6040518088815260200180602001806020018781526020018673ffffffffffffffffffffffffffffffffffffffff1673ffffffffffffffffffffffffffffffffffffffff1681526020018581526020018060200184810384528a818151815260200191508051906020019080838360005b83811015610d89578082015181840152602081019050610d6e565b50505050905090810190601f168015610db65780820380516001836020036101000a031916815260200191505b50848103835289818151815260200191508051906020019080838360005b83811015610def578082015181840152602081019050610dd4565b50505050905090810190601f168015610e1c5780820380516001836020036101000a031916815260200191505b50848103825285818151815260200191508051906020019080838360005b83811015610e55578082015181840152602081019050610e3a565b50505050905090810190601f168015610e825780820380516001836020036101000a031916815260200191505b509a505050505050505050505060405180910390f35b348015610ea457600080fd5b50610ed160048036036020811015610ebb57600080fd5b81019080803590602001909291905050506144f8565b604051808b81526020018060200180602001806020018a81526020018981526020018881526020018781526020018681526020018060200185810385528e818151815260200191508051906020019080838360005b83811015610f41578082015181840152602081019050610f26565b50505050905090810190601f168015610f6e5780820380516001836020036101000a031916815260200191505b5085810384528d818151815260200191508051906020019080838360005b83811015610fa7578082015181840152602081019050610f8c565b50505050905090810190601f168015610fd45780820380516001836020036101000a031916815260200191505b5085810383528c818151815260200191508051906020019080838360005b8381101561100d578082015181840152602081019050610ff2565b50505050905090810190601f16801561103a5780820380516001836020036101000a031916815260200191505b50858103825286818151815260200191508051906020019080838360005b83811015611073578082015181840152602081019050611058565b50505050905090810190601f1680156110a05780820380516001836020036101000a031916815260200191505b509e50505050505050505050505050505060405180910390f35b3480156110c657600080fd5b506110f3600480360360208110156110dd57600080fd5b81019080803590602001909291905050506147ac565b6040518088815260200180602001806020018781526020018673ffffffffffffffffffffffffffffffffffffffff1673ffffffffffffffffffffffffffffffffffffffff1681526020018581526020018060200184810384528a818151815260200191508051906020019080838360005b8381101561117f578082015181840152602081019050611164565b50505050905090810190601f1680156111ac5780820380516001836020036101000a031916815260200191505b50848103835289818151815260200191508051906020019080838360005b838110156111e55780820151818401526020810190506111ca565b50505050905090810190601f1680156112125780820380516001836020036101000a031916815260200191505b50848103825285818151815260200191508051906020019080838360005b8381101561124b578082015181840152602081019050611230565b50505050905090810190601f1680156112785780820380516001836020036101000a031916815260200191505b509a505050505050505050505060405180910390f35b34801561129a57600080fd5b506112c7600480360360208110156112b157600080fd5b81019080803590602001909291905050506149d6565b604051808b81526020018060200180602001806020018a81526020018981526020018881526020018781526020018681526020018060200185810385528e818151815260200191508051906020019080838360005b8381101561133757808201518184015260208101905061131c565b50505050905090810190601f1680156113645780820380516001836020036101000a031916815260200191505b5085810384528d818151815260200191508051906020019080838360005b8381101561139d578082015181840152602081019050611382565b50505050905090810190601f1680156113ca5780820380516001836020036101000a031916815260200191505b5085810383528c818151815260200191508051906020019080838360005b838110156114035780820151818401526020810190506113e8565b50505050905090810190601f1680156114305780820380516001836020036101000a031916815260200191505b50858103825286818151815260200191508051906020019080838360005b8381101561146957808201518184015260208101905061144e565b50505050905090810190601f1680156114965780820380516001836020036101000a031916815260200191505b509e50505050505050505050505050505060405180910390f35b3480156114bc57600080fd5b506114e9600480360360208110156114d357600080fd5b8101908080359060200190929190505050614c97565b604051808215151515815260200191505060405180910390f35b34801561150f57600080fd5b5061153c6004803603602081101561152657600080fd5b8101908080359060200190929190505050614cb7565b6040518088815260200180602001806020018781526020018673ffffffffffffffffffffffffffffffffffffffff1673ffffffffffffffffffffffffffffffffffffffff1681526020018581526020018060200184810384528a818151815260200191508051906020019080838360005b838110156115c85780820151818401526020810190506115ad565b50505050905090810190601f1680156115f55780820380516001836020036101000a031916815260200191505b50848103835289818151815260200191508051906020019080838360005b8381101561162e578082015181840152602081019050611613565b50505050905090810190601f16801561165b5780820380516001836020036101000a031916815260200191505b50848103825285818151815260200191508051906020019080838360005b83811015611694578082015181840152602081019050611679565b50505050905090810190601f1680156116c15780820380516001836020036101000a031916815260200191505b509a505050505050505050505060405180910390f35b3480156116e357600080fd5b50611834600480360360408110156116fa57600080fd5b810190808035906020019064010000000081111561171757600080fd5b82018360208201111561172957600080fd5b8035906020019184600183028401116401000000008311171561174b57600080fd5b91908080601f016020809104026020016040519081016040528093929190818152602001838380828437600081840152601f19601f820116905080830192505050505050509192919290803590602001906401000000008111156117ae57600080fd5b8201836020820111156117c057600080fd5b803590602001918460018302840111640100000000831117156117e257600080fd5b91908080601f016020809104026020016040519081016040528093929190818152602001838380828437600081840152601f19601f820116905080830192505050505050509192919290505050614f82565b604051808215151515815260200191505060405180910390f35b34801561185a57600080fd5b50611863615071565b6040518082815260200191505060405180910390f35b34801561188557600080fd5b506118d26004803603604081101561189c57600080fd5b81019080803573ffffffffffffffffffffffffffffffffffffffff16906020019092919080359060200190929190505050615077565b6040518088815260200180602001806020018781526020018673ffffffffffffffffffffffffffffffffffffffff1673ffffffffffffffffffffffffffffffffffffffff1681526020018581526020018060200184810384528a818151815260200191508051906020019080838360005b8381101561195e578082015181840152602081019050611943565b50505050905090810190601f16801561198b5780820380516001836020036101000a031916815260200191505b50848103835289818151815260200191508051906020019080838360005b838110156119c45780820151818401526020810190506119a9565b50505050905090810190601f1680156119f15780820380516001836020036101000a031916815260200191505b50848103825285818151815260200191508051906020019080838360005b83811015611a2a578082015181840152602081019050611a0f565b50505050905090810190601f168015611a575780820380516001836020036101000a031916815260200191505b509a505050505050505050505060405180910390f35b348015611a7957600080fd5b50611ac660048036036040811015611a9057600080fd5b81019080803573ffffffffffffffffffffffffffffffffffffffff169060200190929190803590602001909291905050506152bb565b604051808b81526020018060200180602001806020018a81526020018981526020018881526020018781526020018681526020018060200185810385528e818151815260200191508051906020019080838360005b83811015611b36578082015181840152602081019050611b1b565b50505050905090810190601f168015611b635780820380516001836020036101000a031916815260200191505b5085810384528d818151815260200191508051906020019080838360005b83811015611b9c578082015181840152602081019050611b81565b50505050905090810190601f168015611bc95780820380516001836020036101000a031916815260200191505b5085810383528c818151815260200191508051906020019080838360005b83811015611c02578082015181840152602081019050611be7565b50505050905090810190601f168015611c2f5780820380516001836020036101000a031916815260200191505b50858103825286818151815260200191508051906020019080838360005b83811015611c68578082015181840152602081019050611c4d565b50505050905090810190601f168015611c955780820380516001836020036101000a031916815260200191505b509e50505050505050505050505050505060405180910390f35b348015611cbb57600080fd5b50611ce860048036036020811015611cd257600080fd5b8101908080359060200190929190505050615589565b005b611f0e6004803603610120811015611d0157600080fd5b810190808035906020019092919080359060200190640100000000811115611d2857600080fd5b820183602082011115611d3a57600080fd5b80359060200191846001830284011164010000000083111715611d5c57600080fd5b91908080601f016020809104026020016040519081016040528093929190818152602001838380828437600081840152601f19601f82011690508083019250505050505050919291929080359060200190640100000000811115611dbf57600080fd5b820183602082011115611dd157600080fd5b80359060200191846001830284011164010000000083111715611df357600080fd5b91908080601f016020809104026020016040519081016040528093929190818152602001838380828437600081840152601f19601f82011690508083019250505050505050919291929080359060200190640100000000811115611e5657600080fd5b820183602082011115611e6857600080fd5b80359060200191846001830284011164010000000083111715611e8a57600080fd5b91908080601f016020809104026020016040519081016040528093929190818152602001838380828437600081840152601f19601f8201169050808301925050505050505091929192908035906020019092919080359060200190929190803590602001909291908035906020019092919080359060200190929190505050616931565b005b348015611f1c57600080fd5b50611f6960048036036040811015611f3357600080fd5b81019080803573ffffffffffffffffffffffffffffffffffffffff169060200190929190803590602001909291905050506176c5565b604051808b81526020018060200180602001806020018a81526020018981526020018881526020018781526020018681526020018060200185810385528e818151815260200191508051906020019080838360005b83811015611fd9578082015181840152602081019050611fbe565b50505050905090810190601f1680156120065780820380516001836020036101000a031916815260200191505b5085810384528d818151815260200191508051906020019080838360005b8381101561203f578082015181840152602081019050612024565b50505050905090810190601f16801561206c5780820380516001836020036101000a031916815260200191505b5085810383528c818151815260200191508051906020019080838360005b838110156120a557808201518184015260208101905061208a565b50505050905090810190601f1680156120d25780820380516001836020036101000a031916815260200191505b50858103825286818151815260200191508051906020019080838360005b8381101561210b5780820151818401526020810190506120f0565b50505050905090810190601f1680156121385780820380516001836020036101000a031916815260200191505b509e50505050505050505050505050505060405180910390f35b34801561215e57600080fd5b50612167617993565b604051808273ffffffffffffffffffffffffffffffffffffffff1673ffffffffffffffffffffffffffffffffffffffff16815260200191505060405180910390f35b600d5481565b60606000600880549050905060008184116121ca57836121cc565b815b905060008285116121df578483036121e2565b60005b905060608386116121f357836121f5565b855b6040519080825280602002602001820160405280156122235781602001602082028038833980820191505090505b509050600080905060008490505b83811261227d576008818154811061224557fe5b90600052602060002090600702016000015483838151811061226357fe5b602002602001018181525050808060019003915050612231565b508195505050505050919050565b600360205281600052604060002081815481106122a457fe5b90600052602060002090600a020160009150915050806000015490806001018054600181600116156101000203166002900480601f0160208091040260200160405190810160405280929190818152602001828054600181600116156101000203166002900480156123575780601f1061232c57610100808354040283529160200191612357565b820191906000526020600020905b81548152906001019060200180831161233a57829003601f168201915b505050505090806002018054600181600116156101000203166002900480601f0160208091040260200160405190810160405280929190818152602001828054600181600116156101000203166002900480156123f55780601f106123ca576101008083540402835291602001916123f5565b820191906000526020600020905b8154815290600101906020018083116123d857829003601f168201915b505050505090806003018054600181600116156101000203166002900480601f0160208091040260200160405190810160405280929190818152602001828054600181600116156101000203166002900480156124935780601f1061246857610100808354040283529160200191612493565b820191906000526020600020905b81548152906001019060200180831161247657829003601f168201915b505050505090806004015490806005015490806006015490806007015490806008015490806009018054600181600116156101000203166002900480601f01602080910402602001604051908101604052809291908181526020018280546001816001161561010002031660029004801561254f5780601f106125245761010080835404028352916020019161254f565b820191906000526020600020905b81548152906001019060200180831161253257829003601f168201915b505050505090508a565b6004602052816000526040600020818154811061257257fe5b90600052602060002090600a020160009150915050806000015490806001018054600181600116156101000203166002900480601f0160208091040260200160405190810160405280929190818152602001828054600181600116156101000203166002900480156126255780601f106125fa57610100808354040283529160200191612625565b820191906000526020600020905b81548152906001019060200180831161260857829003601f168201915b505050505090806002018054600181600116156101000203166002900480601f0160208091040260200160405190810160405280929190818152602001828054600181600116156101000203166002900480156126c35780601f10612698576101008083540402835291602001916126c3565b820191906000526020600020905b8154815290600101906020018083116126a657829003601f168201915b505050505090806003018054600181600116156101000203166002900480601f0160208091040260200160405190810160405280929190818152602001828054600181600116156101000203166002900480156127615780601f1061273657610100808354040283529160200191612761565b820191906000526020600020905b81548152906001019060200180831161274457829003601f168201915b505050505090806004015490806005015490806006015490806007015490806008015490806009018054600181600116156101000203166002900480601f01602080910402602001604051908101604052809291908181526020018280546001816001161561010002031660029004801561281d5780601f106127f25761010080835404028352916020019161281d565b820191906000526020600020905b81548152906001019060200180831161280057829003601f168201915b505050505090508a565b600084511161289e576040517f08c379a00000000000000000000000000000000000000000000000000000000081526004018080602001828103825260158152602001807f5469746c652063616e6e6f7420626520656d707479000000000000000000000081525060200191505060405180910390fd5b6000835111612915576040517f08c379a000000000000000000000000000000000000000000000000000000000815260040180806020018281038252601b8152602001807f6465736372697074696f6e2063616e6e6f7420626520656d707479000000000081525060200191505060405180910390fd5b6000821161298b576040517f08c379a00000000000000000000000000000000000000000000000000000000081526004018080602001828103825260158152602001807f70726963652063616e6e6f7420626520656d707479000000000000000000000081525060200191505060405180910390fd5b6000815111612a02576040517f08c379a00000000000000000000000000000000000000000000000000000000081526004018080602001828103825260158152602001807f496d6167652063616e6e6f7420626520656d707479000000000000000000000081525060200191505060405180910390fd5b612a0a6179b9565b6040518060e00160405280600a5481526020018681526020018581526020014281526020013373ffffffffffffffffffffffffffffffffffffffff168152602001670de0b6b3a76400008502815260200183815250905060088190806001815401808255809150509060018203906000526020600020906007020160009091929091909150600082015181600001556020820151816001019080519060200190612ab5929190617a0c565b506040820151816002019080519060200190612ad2929190617a0c565b506060820151816003015560808201518160040160006101000a81548173ffffffffffffffffffffffffffffffffffffffff021916908373ffffffffffffffffffffffffffffffffffffffff16021790555060a0820151816005015560c0820151816006019080519060200190612b4a929190617a0c565b505050506000803373ffffffffffffffffffffffffffffffffffffffff1673ffffffffffffffffffffffffffffffffffffffff1681526020019081526020016000208190806001815401808255809150509060018203906000526020600020906007020160009091929091909150600082015181600001556020820151816001019080519060200190612bde929190617a0c565b506040820151816002019080519060200190612bfb929190617a0c565b506060820151816003015560808201518160040160006101000a81548173ffffffffffffffffffffffffffffffffffffffff021916908373ffffffffffffffffffffffffffffffffffffffff16021790555060a0820151816005015560c0820151816006019080519060200190612c73929190617a0c565b505050508060056000600a548152602001908152602001600020600082015181600001556020820151816001019080519060200190612cb3929190617a0c565b506040820151816002019080519060200190612cd0929190617a0c565b506060820151816003015560808201518160040160006101000a81548173ffffffffffffffffffffffffffffffffffffffff021916908373ffffffffffffffffffffffffffffffffffffffff16021790555060a0820151816005015560c0820151816006019080519060200190612d48929190617a0c565b50905050600160076000600a54815260200190815260200160002060006101000a81548160ff021916908315150217905550600b60009054906101000a900473ffffffffffffffffffffffffffffffffffffffff1673ffffffffffffffffffffffffffffffffffffffff166340c10f1930600a546040518363ffffffff1660e01b8152600401808373ffffffffffffffffffffffffffffffffffffffff1673ffffffffffffffffffffffffffffffffffffffff16815260200182815260200192505050600060405180830381600087803b158015612e2557600080fd5b505af1158015612e39573d6000803e3d6000fd5b50505050600a600081548092919060010191905055505050505050565b6000606080606060008060008060006060612e6f617a8c565b612eae8e6040518060400160405280600e81526020017f70656e64696e672d73656c6c6572000000000000000000000000000000000000815250614f82565b156131e257600160008e73ffffffffffffffffffffffffffffffffffffffff1673ffffffffffffffffffffffffffffffffffffffff1681526020019081526020016000208c81548110612efd57fe5b90600052602060002090600a02016040518061014001604052908160008201548152602001600182018054600181600116156101000203166002900480601f016020809104026020016040519081016040528092919081815260200182805460018160011615610100020316600290048015612fba5780601f10612f8f57610100808354040283529160200191612fba565b820191906000526020600020905b815481529060010190602001808311612f9d57829003601f168201915b50505050508152602001600282018054600181600116156101000203166002900480601f01602080910402602001604051908101604052809291908181526020018280546001816001161561010002031660029004801561305c5780601f106130315761010080835404028352916020019161305c565b820191906000526020600020905b81548152906001019060200180831161303f57829003601f168201915b50505050508152602001600382018054600181600116156101000203166002900480601f0160208091040260200160405190810160405280929190818152602001828054600181600116156101000203166002900480156130fe5780601f106130d3576101008083540402835291602001916130fe565b820191906000526020600020905b8154815290600101906020018083116130e157829003601f168201915b505050505081526020016004820154815260200160058201548152602001600682015481526020016007820154815260200160088201548152602001600982018054600181600116156101000203166002900480601f0160208091040260200160405190810160405280929190818152602001828054600181600116156101000203166002900480156131d25780601f106131a7576101008083540402835291602001916131d2565b820191906000526020600020905b8154815290600101906020018083116131b557829003601f168201915b5050505050815250509050613c3a565b6132218e6040518060400160405280600d81526020017f70656e64696e672d627579657200000000000000000000000000000000000000815250614f82565b1561355557600260008e73ffffffffffffffffffffffffffffffffffffffff1673ffffffffffffffffffffffffffffffffffffffff1681526020019081526020016000208c8154811061327057fe5b90600052602060002090600a02016040518061014001604052908160008201548152602001600182018054600181600116156101000203166002900480601f01602080910402602001604051908101604052809291908181526020018280546001816001161561010002031660029004801561332d5780601f106133025761010080835404028352916020019161332d565b820191906000526020600020905b81548152906001019060200180831161331057829003601f168201915b50505050508152602001600282018054600181600116156101000203166002900480601f0160208091040260200160405190810160405280929190818152602001828054600181600116156101000203166002900480156133cf5780601f106133a4576101008083540402835291602001916133cf565b820191906000526020600020905b8154815290600101906020018083116133b257829003601f168201915b50505050508152602001600382018054600181600116156101000203166002900480601f0160208091040260200160405190810160405280929190818152602001828054600181600116156101000203166002900480156134715780601f1061344657610100808354040283529160200191613471565b820191906000526020600020905b81548152906001019060200180831161345457829003601f168201915b505050505081526020016004820154815260200160058201548152602001600682015481526020016007820154815260200160088201548152602001600982018054600181600116156101000203166002900480601f0160208091040260200160405190810160405280929190818152602001828054600181600116156101000203166002900480156135455780601f1061351a57610100808354040283529160200191613545565b820191906000526020600020905b81548152906001019060200180831161352857829003601f168201915b5050505050815250509050613c39565b6135948e6040518060400160405280601081526020017f636f6d706c657465642d73656c6c657200000000000000000000000000000000815250614f82565b156138c857600360008e73ffffffffffffffffffffffffffffffffffffffff1673ffffffffffffffffffffffffffffffffffffffff1681526020019081526020016000208c815481106135e357fe5b90600052602060002090600a02016040518061014001604052908160008201548152602001600182018054600181600116156101000203166002900480601f0160208091040260200160405190810160405280929190818152602001828054600181600116156101000203166002900480156136a05780601f10613675576101008083540402835291602001916136a0565b820191906000526020600020905b81548152906001019060200180831161368357829003601f168201915b50505050508152602001600282018054600181600116156101000203166002900480601f0160208091040260200160405190810160405280929190818152602001828054600181600116156101000203166002900480156137425780601f1061371757610100808354040283529160200191613742565b820191906000526020600020905b81548152906001019060200180831161372557829003601f168201915b50505050508152602001600382018054600181600116156101000203166002900480601f0160208091040260200160405190810160405280929190818152602001828054600181600116156101000203166002900480156137e45780601f106137b9576101008083540402835291602001916137e4565b820191906000526020600020905b8154815290600101906020018083116137c757829003601f168201915b505050505081526020016004820154815260200160058201548152602001600682015481526020016007820154815260200160088201548152602001600982018054600181600116156101000203166002900480601f0160208091040260200160405190810160405280929190818152602001828054600181600116156101000203166002900480156138b85780601f1061388d576101008083540402835291602001916138b8565b820191906000526020600020905b81548152906001019060200180831161389b57829003601f168201915b5050505050815250509050613c38565b6139078e6040518060400160405280600f81526020017f636f6d706c657465642d62757965720000000000000000000000000000000000815250614f82565b15613c3757600460008e73ffffffffffffffffffffffffffffffffffffffff1673ffffffffffffffffffffffffffffffffffffffff1681526020019081526020016000208c8154811061395657fe5b90600052602060002090600a02016040518061014001604052908160008201548152602001600182018054600181600116156101000203166002900480601f016020809104026020016040519081016040528092919081815260200182805460018160011615610100020316600290048015613a135780601f106139e857610100808354040283529160200191613a13565b820191906000526020600020905b8154815290600101906020018083116139f657829003601f168201915b50505050508152602001600282018054600181600116156101000203166002900480601f016020809104026020016040519081016040528092919081815260200182805460018160011615610100020316600290048015613ab55780601f10613a8a57610100808354040283529160200191613ab5565b820191906000526020600020905b815481529060010190602001808311613a9857829003601f168201915b50505050508152602001600382018054600181600116156101000203166002900480601f016020809104026020016040519081016040528092919081815260200182805460018160011615610100020316600290048015613b575780601f10613b2c57610100808354040283529160200191613b57565b820191906000526020600020905b815481529060010190602001808311613b3a57829003601f168201915b505050505081526020016004820154815260200160058201548152602001600682015481526020016007820154815260200160088201548152602001600982018054600181600116156101000203166002900480601f016020809104026020016040519081016040528092919081815260200182805460018160011615610100020316600290048015613c2b5780601f10613c0057610100808354040283529160200191613c2b565b820191906000526020600020905b815481529060010190602001808311613c0e57829003601f168201915b50505050508152505090505b5b5b5b80600001519a50806020015199508060400151985080606001519750806080015196508060a0015195508060c0015194508060e001519350806101000151925080610120015191505093979b5093979b91959950939750565b600c5481565b6060600080600060606000809050613ce6896040518060400160405280600e81526020017f70656e64696e672d73656c6c6572000000000000000000000000000000000000815250614f82565b15613e2a57600160008973ffffffffffffffffffffffffffffffffffffffff1673ffffffffffffffffffffffffffffffffffffffff168152602001908152602001600020805490509450848711613d3d5786613d3f565b845b9350848711613d5057868503613d53565b60005b9250848711613d625784613d64565b865b604051908082528060200260200182016040528015613d925781602001602082028038833980820191505090505b50915060008490505b838112613e2457600160008a73ffffffffffffffffffffffffffffffffffffffff1673ffffffffffffffffffffffffffffffffffffffff1681526020019081526020016000208181548110613dec57fe5b90600052602060002090600a020160000154838381518110613e0a57fe5b602002602001018181525050808060019003915050613d9b565b506142b2565b613e69896040518060400160405280600d81526020017f70656e64696e672d627579657200000000000000000000000000000000000000815250614f82565b15613fad57600260008973ffffffffffffffffffffffffffffffffffffffff1673ffffffffffffffffffffffffffffffffffffffff168152602001908152602001600020805490509450848711613ec05786613ec2565b845b9350848711613ed357868503613ed6565b60005b9250848711613ee55784613ee7565b865b604051908082528060200260200182016040528015613f155781602001602082028038833980820191505090505b50915060008490505b838112613fa757600260008a73ffffffffffffffffffffffffffffffffffffffff1673ffffffffffffffffffffffffffffffffffffffff1681526020019081526020016000208181548110613f6f57fe5b90600052602060002090600a020160000154838381518110613f8d57fe5b602002602001018181525050808060019003915050613f1e565b506142b1565b613fec896040518060400160405280601081526020017f636f6d706c657465642d73656c6c657200000000000000000000000000000000815250614f82565b1561413057600360008973ffffffffffffffffffffffffffffffffffffffff1673ffffffffffffffffffffffffffffffffffffffff1681526020019081526020016000208054905094508487116140435786614045565b845b935084871161405657868503614059565b60005b9250848711614068578461406a565b865b6040519080825280602002602001820160405280156140985781602001602082028038833980820191505090505b50915060008490505b83811261412a57600360008a73ffffffffffffffffffffffffffffffffffffffff1673ffffffffffffffffffffffffffffffffffffffff16815260200190815260200160002081815481106140f257fe5b90600052602060002090600a02016000015483838151811061411057fe5b6020026020010181815250508080600190039150506140a1565b506142b0565b61416f896040518060400160405280600f81526020017f636f6d706c657465642d62757965720000000000000000000000000000000000815250614f82565b156142af57600460008973ffffffffffffffffffffffffffffffffffffffff1673ffffffffffffffffffffffffffffffffffffffff1681526020019081526020016000208054905094508487116141c657866141c8565b845b93508487116141d9578685036141dc565b60005b92508487116141eb57846141ed565b865b60405190808252806020026020018201604052801561421b5781602001602082028038833980820191505090505b50915060008490505b8381126142ad57600460008a73ffffffffffffffffffffffffffffffffffffffff1673ffffffffffffffffffffffffffffffffffffffff168152602001908152602001600020818154811061427557fe5b90600052602060002090600a02016000015483838151811061429357fe5b602002602001018181525050808060019003915050614224565b505b5b5b5b81955050505050509392505050565b600881815481106142ce57fe5b9060005260206000209060070201600091509050806000015490806001018054600181600116156101000203166002900480601f0160208091040260200160405190810160405280929190818152602001828054600181600116156101000203166002900480156143805780601f1061435557610100808354040283529160200191614380565b820191906000526020600020905b81548152906001019060200180831161436357829003601f168201915b505050505090806002018054600181600116156101000203166002900480601f01602080910402602001604051908101604052809291908181526020018280546001816001161561010002031660029004801561441e5780601f106143f35761010080835404028352916020019161441e565b820191906000526020600020905b81548152906001019060200180831161440157829003601f168201915b5050505050908060030154908060040160009054906101000a900473ffffffffffffffffffffffffffffffffffffffff1690806005015490806006018054600181600116156101000203166002900480601f0160208091040260200160405190810160405280929190818152602001828054600181600116156101000203166002900480156144ee5780601f106144c3576101008083540402835291602001916144ee565b820191906000526020600020905b8154815290600101906020018083116144d157829003601f168201915b5050505050905087565b6006602052806000526040600020600091509050806000015490806001018054600181600116156101000203166002900480601f0160208091040260200160405190810160405280929190818152602001828054600181600116156101000203166002900480156145aa5780601f1061457f576101008083540402835291602001916145aa565b820191906000526020600020905b81548152906001019060200180831161458d57829003601f168201915b505050505090806002018054600181600116156101000203166002900480601f0160208091040260200160405190810160405280929190818152602001828054600181600116156101000203166002900480156146485780601f1061461d57610100808354040283529160200191614648565b820191906000526020600020905b81548152906001019060200180831161462b57829003601f168201915b505050505090806003018054600181600116156101000203166002900480601f0160208091040260200160405190810160405280929190818152602001828054600181600116156101000203166002900480156146e65780601f106146bb576101008083540402835291602001916146e6565b820191906000526020600020905b8154815290600101906020018083116146c957829003601f168201915b505050505090806004015490806005015490806006015490806007015490806008015490806009018054600181600116156101000203166002900480601f0160208091040260200160405190810160405280929190818152602001828054600181600116156101000203166002900480156147a25780601f10614777576101008083540402835291602001916147a2565b820191906000526020600020905b81548152906001019060200180831161478557829003601f168201915b505050505090508a565b6005602052806000526040600020600091509050806000015490806001018054600181600116156101000203166002900480601f01602080910402602001604051908101604052809291908181526020018280546001816001161561010002031660029004801561485e5780601f106148335761010080835404028352916020019161485e565b820191906000526020600020905b81548152906001019060200180831161484157829003601f168201915b505050505090806002018054600181600116156101000203166002900480601f0160208091040260200160405190810160405280929190818152602001828054600181600116156101000203166002900480156148fc5780601f106148d1576101008083540402835291602001916148fc565b820191906000526020600020905b8154815290600101906020018083116148df57829003601f168201915b5050505050908060030154908060040160009054906101000a900473ffffffffffffffffffffffffffffffffffffffff1690806005015490806006018054600181600116156101000203166002900480601f0160208091040260200160405190810160405280929190818152602001828054600181600116156101000203166002900480156149cc5780601f106149a1576101008083540402835291602001916149cc565b820191906000526020600020905b8154815290600101906020018083116149af57829003601f168201915b5050505050905087565b600981815481106149e357fe5b90600052602060002090600a0201600091509050806000015490806001018054600181600116156101000203166002900480601f016020809104026020016040519081016040528092919081815260200182805460018160011615610100020316600290048015614a955780601f10614a6a57610100808354040283529160200191614a95565b820191906000526020600020905b815481529060010190602001808311614a7857829003601f168201915b505050505090806002018054600181600116156101000203166002900480601f016020809104026020016040519081016040528092919081815260200182805460018160011615610100020316600290048015614b335780601f10614b0857610100808354040283529160200191614b33565b820191906000526020600020905b815481529060010190602001808311614b1657829003601f168201915b505050505090806003018054600181600116156101000203166002900480601f016020809104026020016040519081016040528092919081815260200182805460018160011615610100020316600290048015614bd15780601f10614ba657610100808354040283529160200191614bd1565b820191906000526020600020905b815481529060010190602001808311614bb457829003601f168201915b505050505090806004015490806005015490806006015490806007015490806008015490806009018054600181600116156101000203166002900480601f016020809104026020016040519081016040528092919081815260200182805460018160011615610100020316600290048015614c8d5780601f10614c6257610100808354040283529160200191614c8d565b820191906000526020600020905b815481529060010190602001808311614c7057829003601f168201915b505050505090508a565b60076020528060005260406000206000915054906101000a900460ff1681565b600060608060008060006060614ccb6179b9565b600560008a81526020019081526020016000206040518060e001604052908160008201548152602001600182018054600181600116156101000203166002900480601f016020809104026020016040519081016040528092919081815260200182805460018160011615610100020316600290048015614d8c5780601f10614d6157610100808354040283529160200191614d8c565b820191906000526020600020905b815481529060010190602001808311614d6f57829003601f168201915b50505050508152602001600282018054600181600116156101000203166002900480601f016020809104026020016040519081016040528092919081815260200182805460018160011615610100020316600290048015614e2e5780601f10614e0357610100808354040283529160200191614e2e565b820191906000526020600020905b815481529060010190602001808311614e1157829003601f168201915b50505050508152602001600382015481526020016004820160009054906101000a900473ffffffffffffffffffffffffffffffffffffffff1673ffffffffffffffffffffffffffffffffffffffff1673ffffffffffffffffffffffffffffffffffffffff16815260200160058201548152602001600682018054600181600116156101000203166002900480601f016020809104026020016040519081016040528092919081815260200182805460018160011615610100020316600290048015614f3a5780601f10614f0f57610100808354040283529160200191614f3a565b820191906000526020600020905b815481529060010190602001808311614f1d57829003601f168201915b505050505081525050905080600001519750806020015196508060400151955080606001519450806080015193508060a0015192508060c00151915050919395979092949650565b6000816040516020018082805190602001908083835b60208310614fbb5780518252602082019150602081019050602083039250614f98565b6001836020036101000a03801982511681845116808217855250505050505090500191505060405160208183030381529060405280519060200120836040516020018082805190602001908083835b6020831061502d578051825260208201915060208101905060208303925061500a565b6001836020036101000a0380198251168184511680821785525050505050509050019150506040516020818303038152906040528051906020012014905092915050565b600a5481565b6000602052816000526040600020818154811061509057fe5b906000526020600020906007020160009150915050806000015490806001018054600181600116156101000203166002900480601f0160208091040260200160405190810160405280929190818152602001828054600181600116156101000203166002900480156151435780601f1061511857610100808354040283529160200191615143565b820191906000526020600020905b81548152906001019060200180831161512657829003601f168201915b505050505090806002018054600181600116156101000203166002900480601f0160208091040260200160405190810160405280929190818152602001828054600181600116156101000203166002900480156151e15780601f106151b6576101008083540402835291602001916151e1565b820191906000526020600020905b8154815290600101906020018083116151c457829003601f168201915b5050505050908060030154908060040160009054906101000a900473ffffffffffffffffffffffffffffffffffffffff1690806005015490806006018054600181600116156101000203166002900480601f0160208091040260200160405190810160405280929190818152602001828054600181600116156101000203166002900480156152b15780601f10615286576101008083540402835291602001916152b1565b820191906000526020600020905b81548152906001019060200180831161529457829003601f168201915b5050505050905087565b600260205281600052604060002081815481106152d457fe5b90600052602060002090600a020160009150915050806000015490806001018054600181600116156101000203166002900480601f0160208091040260200160405190810160405280929190818152602001828054600181600116156101000203166002900480156153875780601f1061535c57610100808354040283529160200191615387565b820191906000526020600020905b81548152906001019060200180831161536a57829003601f168201915b505050505090806002018054600181600116156101000203166002900480601f0160208091040260200160405190810160405280929190818152602001828054600181600116156101000203166002900480156154255780601f106153fa57610100808354040283529160200191615425565b820191906000526020600020905b81548152906001019060200180831161540857829003601f168201915b505050505090806003018054600181600116156101000203166002900480601f0160208091040260200160405190810160405280929190818152602001828054600181600116156101000203166002900480156154c35780601f10615498576101008083540402835291602001916154c3565b820191906000526020600020905b8154815290600101906020018083116154a657829003601f168201915b505050505090806004015490806005015490806006015490806007015490806008015490806009018054600181600116156101000203166002900480601f01602080910402602001604051908101604052809291908181526020018280546001816001161561010002031660029004801561557f5780601f106155545761010080835404028352916020019161557f565b820191906000526020600020905b81548152906001019060200180831161556257829003601f168201915b505050505090508a565b615591617a8c565b600660008381526020019081526020016000206040518061014001604052908160008201548152602001600182018054600181600116156101000203166002900480601f0160208091040260200160405190810160405280929190818152602001828054600181600116156101000203166002900480156156535780601f1061562857610100808354040283529160200191615653565b820191906000526020600020905b81548152906001019060200180831161563657829003601f168201915b50505050508152602001600282018054600181600116156101000203166002900480601f0160208091040260200160405190810160405280929190818152602001828054600181600116156101000203166002900480156156f55780601f106156ca576101008083540402835291602001916156f5565b820191906000526020600020905b8154815290600101906020018083116156d857829003601f168201915b50505050508152602001600382018054600181600116156101000203166002900480601f0160208091040260200160405190810160405280929190818152602001828054600181600116156101000203166002900480156157975780601f1061576c57610100808354040283529160200191615797565b820191906000526020600020905b81548152906001019060200180831161577a57829003601f168201915b505050505081526020016004820154815260200160058201548152602001600682015481526020016007820154815260200160088201548152602001600982018054600181600116156101000203166002900480601f01602080910402602001604051908101604052809291908181526020018280546001816001161561010002031660029004801561586b5780601f106158405761010080835404028352916020019161586b565b820191906000526020600020905b81548152906001019060200180831161584e57829003601f168201915b505050505081525050905061587e6179b9565b600560008481526020019081526020016000206040518060e001604052908160008201548152602001600182018054600181600116156101000203166002900480601f01602080910402602001604051908101604052809291908181526020018280546001816001161561010002031660029004801561593f5780601f106159145761010080835404028352916020019161593f565b820191906000526020600020905b81548152906001019060200180831161592257829003601f168201915b50505050508152602001600282018054600181600116156101000203166002900480601f0160208091040260200160405190810160405280929190818152602001828054600181600116156101000203166002900480156159e15780601f106159b6576101008083540402835291602001916159e1565b820191906000526020600020905b8154815290600101906020018083116159c457829003601f168201915b50505050508152602001600382015481526020016004820160009054906101000a900473ffffffffffffffffffffffffffffffffffffffff1673ffffffffffffffffffffffffffffffffffffffff1673ffffffffffffffffffffffffffffffffffffffff16815260200160058201548152602001600682018054600181600116156101000203166002900480601f016020809104026020016040519081016040528092919081815260200182805460018160011615610100020316600290048015615aed5780601f10615ac257610100808354040283529160200191615aed565b820191906000526020600020905b815481529060010190602001808311615ad057829003601f168201915b50505050508152505090503373ffffffffffffffffffffffffffffffffffffffff16816080015173ffffffffffffffffffffffffffffffffffffffff1614615b80576040517f08c379a0000000000000000000000000000000000000000000000000000000008152600401808060200182810382526027815260200180617c666027913960400191505060405180910390fd5b6040518060400160405280600981526020017f636f6d706c65746564000000000000000000000000000000000000000000000081525082610120018190525060008090505b60016000836080015173ffffffffffffffffffffffffffffffffffffffff1673ffffffffffffffffffffffffffffffffffffffff168152602001908152602001600020805490508110156160f4578360016000846080015173ffffffffffffffffffffffffffffffffffffffff1673ffffffffffffffffffffffffffffffffffffffff1681526020019081526020016000208281548110615c6257fe5b90600052602060002090600a02016000015414156160e757615c82617a8c565b60066000600c5481526020019081526020016000206040518061014001604052908160008201548152602001600182018054600181600116156101000203166002900480601f016020809104026020016040519081016040528092919081815260200182805460018160011615610100020316600290048015615d465780601f10615d1b57610100808354040283529160200191615d46565b820191906000526020600020905b815481529060010190602001808311615d2957829003601f168201915b50505050508152602001600282018054600181600116156101000203166002900480601f016020809104026020016040519081016040528092919081815260200182805460018160011615610100020316600290048015615de85780601f10615dbd57610100808354040283529160200191615de8565b820191906000526020600020905b815481529060010190602001808311615dcb57829003601f168201915b50505050508152602001600382018054600181600116156101000203166002900480601f016020809104026020016040519081016040528092919081815260200182805460018160011615610100020316600290048015615e8a5780601f10615e5f57610100808354040283529160200191615e8a565b820191906000526020600020905b815481529060010190602001808311615e6d57829003601f168201915b505050505081526020016004820154815260200160058201548152602001600682015481526020016007820154815260200160088201548152602001600982018054600181600116156101000203166002900480601f016020809104026020016040519081016040528092919081815260200182805460018160011615610100020316600290048015615f5e5780601f10615f3357610100808354040283529160200191615f5e565b820191906000526020600020905b815481529060010190602001808311615f4157829003601f168201915b50505050508152505090508060016000856080015173ffffffffffffffffffffffffffffffffffffffff1673ffffffffffffffffffffffffffffffffffffffff1681526020019081526020016000208381548110615fb857fe5b90600052602060002090600a0201600082015181600001556020820151816001019080519060200190615fec929190617a0c565b506040820151816002019080519060200190616009929190617a0c565b506060820151816003019080519060200190616026929190617a0c565b506080820151816004015560a0820151816005015560c0820151816006015560e082015181600701556101008201518160080155610120820151816009019080519060200190616077929190617a0c565b5090505060016000846080015173ffffffffffffffffffffffffffffffffffffffff1673ffffffffffffffffffffffffffffffffffffffff1681526020019081526020016000208054809190600190036160d19190617ae8565b50600c6000815480929190600190039190505550505b8080600101915050615bc5565b5060008090505b600260003373ffffffffffffffffffffffffffffffffffffffff1673ffffffffffffffffffffffffffffffffffffffff1681526020019081526020016000208054905081101561661e578260000151600260003373ffffffffffffffffffffffffffffffffffffffff1673ffffffffffffffffffffffffffffffffffffffff168152602001908152602001600020828154811061619457fe5b90600052602060002090600a0201600001541415616611576161b4617a8c565b60066000600d5481526020019081526020016000206040518061014001604052908160008201548152602001600182018054600181600116156101000203166002900480601f0160208091040260200160405190810160405280929190818152602001828054600181600116156101000203166002900480156162785780601f1061624d57610100808354040283529160200191616278565b820191906000526020600020905b81548152906001019060200180831161625b57829003601f168201915b50505050508152602001600282018054600181600116156101000203166002900480601f01602080910402602001604051908101604052809291908181526020018280546001816001161561010002031660029004801561631a5780601f106162ef5761010080835404028352916020019161631a565b820191906000526020600020905b8154815290600101906020018083116162fd57829003601f168201915b50505050508152602001600382018054600181600116156101000203166002900480601f0160208091040260200160405190810160405280929190818152602001828054600181600116156101000203166002900480156163bc5780601f10616391576101008083540402835291602001916163bc565b820191906000526020600020905b81548152906001019060200180831161639f57829003601f168201915b505050505081526020016004820154815260200160058201548152602001600682015481526020016007820154815260200160088201548152602001600982018054600181600116156101000203166002900480601f0160208091040260200160405190810160405280929190818152602001828054600181600116156101000203166002900480156164905780601f1061646557610100808354040283529160200191616490565b820191906000526020600020905b81548152906001019060200180831161647357829003601f168201915b505050505081525050905080600260003373ffffffffffffffffffffffffffffffffffffffff1673ffffffffffffffffffffffffffffffffffffffff16815260200190815260200160002083815481106164e657fe5b90600052602060002090600a020160008201518160000155602082015181600101908051906020019061651a929190617a0c565b506040820151816002019080519060200190616537929190617a0c565b506060820151816003019080519060200190616554929190617a0c565b506080820151816004015560a0820151816005015560c0820151816006015560e0820151816007015561010082015181600801556101208201518160090190805190602001906165a5929190617a0c565b50905050600260003373ffffffffffffffffffffffffffffffffffffffff1673ffffffffffffffffffffffffffffffffffffffff1681526020019081526020016000208054809190600190036165fb9190617ae8565b50600d6000815480929190600190039190505550505b80806001019150506160fb565b5060036000826080015173ffffffffffffffffffffffffffffffffffffffff1673ffffffffffffffffffffffffffffffffffffffff168152602001908152602001600020829080600181540180825580915050906001820390600052602060002090600a0201600090919290919091506000820151816000015560208201518160010190805190602001906166b4929190617a0c565b5060408201518160020190805190602001906166d1929190617a0c565b5060608201518160030190805190602001906166ee929190617a0c565b506080820151816004015560a0820151816005015560c0820151816006015560e08201518160070155610100820151816008015561012082015181600901908051906020019061673f929190617a0c565b50505050600460003373ffffffffffffffffffffffffffffffffffffffff1673ffffffffffffffffffffffffffffffffffffffff168152602001908152602001600020829080600181540180825580915050906001820390600052602060002090600a0201600090919290919091506000820151816000015560208201518160010190805190602001906167d4929190617a0c565b5060408201518160020190805190602001906167f1929190617a0c565b50606082015181600301908051906020019061680e929190617a0c565b506080820151816004015560a0820151816005015560c0820151816006015560e08201518160070155610100820151816008015561012082015181600901908051906020019061685f929190617a0c565b50505050816006600085815260200190815260200160002060008201518160000155602082015181600101908051906020019061689d929190617a0c565b5060408201518160020190805190602001906168ba929190617a0c565b5060608201518160030190805190602001906168d7929190617a0c565b506080820151816004015560a0820151816005015560c0820151816006015560e082015181600701556101008201518160080155610120820151816009019080519060200190616928929190617a0c565b50905050505050565b600760008a815260200190815260200160002060009054906101000a900460ff166169a7576040517f08c379a0000000000000000000000000000000000000000000000000000000008152600401808060200182810382526022815260200180617c446022913960400191505060405180910390fd5b6000885111616a1e576040517f08c379a000000000000000000000000000000000000000000000000000000000815260040180806020018281038252601c8152602001807f4e616d6520616e64205375726e616d65206d757374206265207365740000000081525060200191505060405180910390fd5b6000875111616a95576040517f08c379a000000000000000000000000000000000000000000000000000000000815260040180806020018281038252601e8152602001807f4c696e65206f6e6520646972656374696f6e206d75737420626520736574000081525060200191505060405180910390fd5b6000602060ff1611616b0f576040517f08c379a00000000000000000000000000000000000000000000000000000000081526004018080602001828103825260108152602001807f43697479206d757374206265207365740000000000000000000000000000000081525060200191505060405180910390fd5b6000602060ff1611616b89576040517f08c379a000000000000000000000000000000000000000000000000000000000815260040180806020018281038252601b8152602001807f5374617465206f7220726567696f6e206d75737420626520736574000000000081525060200191505060405180910390fd5b60008311616bff576040517f08c379a00000000000000000000000000000000000000000000000000000000081526004018080602001828103825260178152602001807f506f7374616c20636f6465206d7573742062652073657400000000000000000081525060200191505060405180910390fd5b6000801b8211616c77576040517f08c379a00000000000000000000000000000000000000000000000000000000081526004018080602001828103825260138152602001807f436f756e747279206d757374206265207365740000000000000000000000000081525060200191505060405180910390fd5b616c7f6179b9565b600560008b81526020019081526020016000206040518060e001604052908160008201548152602001600182018054600181600116156101000203166002900480601f016020809104026020016040519081016040528092919081815260200182805460018160011615610100020316600290048015616d405780601f10616d1557610100808354040283529160200191616d40565b820191906000526020600020905b815481529060010190602001808311616d2357829003601f168201915b50505050508152602001600282018054600181600116156101000203166002900480601f016020809104026020016040519081016040528092919081815260200182805460018160011615610100020316600290048015616de25780601f10616db757610100808354040283529160200191616de2565b820191906000526020600020905b815481529060010190602001808311616dc557829003601f168201915b50505050508152602001600382015481526020016004820160009054906101000a900473ffffffffffffffffffffffffffffffffffffffff1673ffffffffffffffffffffffffffffffffffffffff1673ffffffffffffffffffffffffffffffffffffffff16815260200160058201548152602001600682018054600181600116156101000203166002900480601f016020809104026020016040519081016040528092919081815260200182805460018160011615610100020316600290048015616eee5780601f10616ec357610100808354040283529160200191616eee565b820191906000526020600020905b815481529060010190602001808311616ed157829003601f168201915b5050505050815250509050616f01617a8c565b6040518061014001604052808c81526020018b81526020018a81526020018981526020018881526020018781526020018681526020018581526020018481526020016040518060400160405280600781526020017f70656e64696e670000000000000000000000000000000000000000000000000081525081525090508160a00151341015616fdb576040517f08c379a000000000000000000000000000000000000000000000000000000000815260040180806020018281038252602d815260200180617c17602d913960400191505060405180910390fd5b8160a00151341115617035573373ffffffffffffffffffffffffffffffffffffffff166108fc8360a0015134039081150290604051600060405180830381858888f19350505050158015617033573d6000803e3d6000fd5b505b60016000836080015173ffffffffffffffffffffffffffffffffffffffff1673ffffffffffffffffffffffffffffffffffffffff168152602001908152602001600020819080600181540180825580915050906001820390600052602060002090600a0201600090919290919091506000820151816000015560208201518160010190805190602001906170ca929190617a0c565b5060408201518160020190805190602001906170e7929190617a0c565b506060820151816003019080519060200190617104929190617a0c565b506080820151816004015560a0820151816005015560c0820151816006015560e082015181600701556101008201518160080155610120820151816009019080519060200190617155929190617a0c565b50505050600260003373ffffffffffffffffffffffffffffffffffffffff1673ffffffffffffffffffffffffffffffffffffffff168152602001908152602001600020819080600181540180825580915050906001820390600052602060002090600a0201600090919290919091506000820151816000015560208201518160010190805190602001906171ea929190617a0c565b506040820151816002019080519060200190617207929190617a0c565b506060820151816003019080519060200190617224929190617a0c565b506080820151816004015560a0820151816005015560c0820151816006015560e082015181600701556101008201518160080155610120820151816009019080519060200190617275929190617a0c565b505050506009819080600181540180825580915050906001820390600052602060002090600a0201600090919290919091506000820151816000015560208201518160010190805190602001906172cd929190617a0c565b5060408201518160020190805190602001906172ea929190617a0c565b506060820151816003019080519060200190617307929190617a0c565b506080820151816004015560a0820151816005015560c0820151816006015560e082015181600701556101008201518160080155610120820151816009019080519060200190617358929190617a0c565b5050505080600660008d8152602001908152602001600020600082015181600001556020820151816001019080519060200190617396929190617a0c565b5060408201518160020190805190602001906173b3929190617a0c565b5060608201518160030190805190602001906173d0929190617a0c565b506080820151816004015560a0820151816005015560c0820151816006015560e082015181600701556101008201518160080155610120820151816009019080519060200190617421929190617a0c565b50905050600060016000846080015173ffffffffffffffffffffffffffffffffffffffff1673ffffffffffffffffffffffffffffffffffffffff168152602001908152602001600020805490501161747a5760006174c4565b6001806000846080015173ffffffffffffffffffffffffffffffffffffffff1673ffffffffffffffffffffffffffffffffffffffff16815260200190815260200160002080549050035b600c81905550600060026000846080015173ffffffffffffffffffffffffffffffffffffffff1673ffffffffffffffffffffffffffffffffffffffff168152602001908152602001600020805490501161751f57600061756a565b600160026000846080015173ffffffffffffffffffffffffffffffffffffffff1673ffffffffffffffffffffffffffffffffffffffff16815260200190815260200160002080549050035b600d81905550600b60009054906101000a900473ffffffffffffffffffffffffffffffffffffffff1673ffffffffffffffffffffffffffffffffffffffff166323b872dd8360800151338e6040518463ffffffff1660e01b8152600401808473ffffffffffffffffffffffffffffffffffffffff1673ffffffffffffffffffffffffffffffffffffffff1681526020018373ffffffffffffffffffffffffffffffffffffffff1673ffffffffffffffffffffffffffffffffffffffff1681526020018281526020019350505050600060405180830381600087803b15801561765157600080fd5b505af1158015617665573d6000803e3d6000fd5b50505050816080015173ffffffffffffffffffffffffffffffffffffffff166108fc8360a001519081150290604051600060405180830381858888f193505050501580156176b7573d6000803e3d6000fd5b505050505050505050505050565b600160205281600052604060002081815481106176de57fe5b90600052602060002090600a020160009150915050806000015490806001018054600181600116156101000203166002900480601f0160208091040260200160405190810160405280929190818152602001828054600181600116156101000203166002900480156177915780601f1061776657610100808354040283529160200191617791565b820191906000526020600020905b81548152906001019060200180831161777457829003601f168201915b505050505090806002018054600181600116156101000203166002900480601f01602080910402602001604051908101604052809291908181526020018280546001816001161561010002031660029004801561782f5780601f106178045761010080835404028352916020019161782f565b820191906000526020600020905b81548152906001019060200180831161781257829003601f168201915b505050505090806003018054600181600116156101000203166002900480601f0160208091040260200160405190810160405280929190818152602001828054600181600116156101000203166002900480156178cd5780601f106178a2576101008083540402835291602001916178cd565b820191906000526020600020905b8154815290600101906020018083116178b057829003601f168201915b505050505090806004015490806005015490806006015490806007015490806008015490806009018054600181600116156101000203166002900480601f0160208091040260200160405190810160405280929190818152602001828054600181600116156101000203166002900480156179895780601f1061795e57610100808354040283529160200191617989565b820191906000526020600020905b81548152906001019060200180831161796c57829003601f168201915b505050505090508a565b600b60009054906101000a900473ffffffffffffffffffffffffffffffffffffffff1681565b6040518060e0016040528060008152602001606081526020016060815260200160008152602001600073ffffffffffffffffffffffffffffffffffffffff16815260200160008152602001606081525090565b828054600181600116156101000203166002900490600052602060002090601f016020900481019282601f10617a4d57805160ff1916838001178555617a7b565b82800160010185558215617a7b579182015b82811115617a7a578251825591602001919060010190617a5f565b5b509050617a889190617b1a565b5090565b604051806101400160405280600081526020016060815260200160608152602001606081526020016000801916815260200160008019168152602001600081526020016000801916815260200160008152602001606081525090565b815481835581811115617b1557600a0281600a028360005260206000209182019101617b149190617b3f565b5b505050565b617b3c91905b80821115617b38576000816000905550600101617b20565b5090565b90565b617bcb91905b80821115617bc757600080820160009055600182016000617b669190617bce565b600282016000617b769190617bce565b600382016000617b869190617bce565b60048201600090556005820160009055600682016000905560078201600090556008820160009055600982016000617bbe9190617bce565b50600a01617b45565b5090565b90565b50805460018160011615610100020316600290046000825580601f10617bf45750617c13565b601f016020900490600052602060002090810190617c129190617b1a565b5b5056fe5061796d656e74206d75737420626520657175616c20746f206f72206c6172676572207468616e20707269636550726f64756374206d75737420657869737420746f206265207075726368617365644f6e6c792073656c6c65722063616e206d61726b206f7264657220617320636f6d706c65746564a165627a7a72305820a33eaa6ee1ee0e171e65bb2a24010c4609bbf6fda375e28fc3f87210c419dc3f0029",
  "source": "pragma solidity ^0.5.0;\r\n\r\nimport './ERC721.sol';\r\n\r\n//E-commerce token that implements the ERC721 token with mint function\r\ncontract EcommerceToken is ERC721 {\r\n    address public ecommerce;\r\n    bool public isEcommerceSet = false;\r\n    \r\n    //generate new token for the specified address\r\n    function mint(address _to, uint256 _tokenId) public {\r\n        require(msg.sender == ecommerce, 'Only contract can mint new token');\r\n        _mint(_to, _tokenId);\r\n    }\r\n\r\n    //Set ecommerce smart contract address\r\n    function setEcommerce(address _ecommerce) public {\r\n        require(!isEcommerceSet, 'Ecommerce address can only be set once');\r\n        require(_ecommerce != address(0), 'Address cannot be empty');\r\n        isEcommerceSet = true;\r\n        ecommerce = _ecommerce;\r\n    }\r\n}\r\n\r\n// Main ecommerce contract to buy and sell ERC-721 tokens\r\n// Representing physical or digital products.\r\ncontract Ecommerce {\r\n    struct Product {\r\n        uint256 id;\r\n        string title;\r\n        string description;\r\n        uint256 date;\r\n        address payable owner;\r\n        uint256 price;\r\n        string image;\r\n    }\r\n\r\n    struct Order {\r\n        uint256 id;\r\n        string nameSurname;\r\n        string lineOneDirection;\r\n        string lineTwoDirection;\r\n        bytes32 city;\r\n        bytes32 stateRegion;\r\n        uint256 postalCode;\r\n        bytes32 country;\r\n        uint256 phone;\r\n        string state; //'pending'/'completed\r\n    }\r\n\r\n    //Seller address => products\r\n    //Published products by the seller\r\n    mapping(address => Product[]) public sellerProducts;\r\n    // Products waiting to be fulfilled by the seller, used by\r\n    //seller to check which orders have to be fulfilled\r\n    mapping(address => Order[]) public pendingSellerOrders;\r\n\r\n    // Buyer address => products\r\n    // Products buyer purchased waiting to be sent\r\n    mapping(address => Order[]) public pendingBuyerOrders;\r\n\r\n    // Seller address => products\r\n    // History of past orders fulfilled by the seller\r\n    mapping(address => Order[]) public completedSellerOrders;\r\n\r\n    // Buyer address => products\r\n    // History of past orders made by buyer\r\n    mapping(address => Order[]) public completedBuyerOrders;\r\n\r\n    //Product Id => product\r\n    mapping(uint256 => Product) public productById;\r\n\r\n    // ProductId => Order\r\n    mapping(uint256 => Order) public orderById;\r\n\r\n    // Product id => true/false\r\n    mapping(uint256 => bool) public productExists;\r\n\r\n    Product[] public products;\r\n    Order[] public orders;\r\n    uint256 public lastId;\r\n    address public token;\r\n    uint256 public lastPendingSellerOrder;\r\n    uint256 public lastPendingBuyerOrder;\r\n\r\n    //To setup the address of the ERC721 token to use for this contract\r\n    constructor(address _token) public {\r\n        token = _token;\r\n    }\r\n\r\n    // To publish a product as a seller\r\n    function publishProduct(\r\n        string memory _title,\r\n        string memory _description,\r\n        uint256 _price,\r\n        string memory _image\r\n    ) public {\r\n        require(bytes(_title).length > 0,'Title cannot be empty');\r\n        require(bytes(_description).length > 0, 'description cannot be empty');\r\n        require(_price > 0, 'price cannot be empty');\r\n        require(bytes(_image).length > 0, 'Image cannot be empty');\r\n\r\n        Product memory p = Product(\r\n            lastId, \r\n            _title, \r\n            _description, \r\n            now, \r\n            msg.sender, \r\n            _price * 1e18, \r\n            _image\r\n        );\r\n        products.push(p);\r\n        sellerProducts[msg.sender].push(p);\r\n        productById[lastId] = p;\r\n        productExists[lastId] = true;\r\n        //Create new token for this product which will be owned\r\n        // by the contract until sold\r\n        EcommerceToken(token).mint(address(this), lastId);\r\n        lastId++;\r\n    }\r\n\r\n    // To buy a product, seller must authorize contract\r\n    // to manage the token\r\n    function buyProduct(\r\n        uint256 _id,\r\n        string memory _nameSurname,\r\n        string memory _lineOneDirection,\r\n        string memory _lineTwoDirection,\r\n        bytes32 _city,\r\n        bytes32 _stateRegion,\r\n        uint256 _postalCode,\r\n        bytes32 _country,\r\n        uint256 _phone\r\n    ) public payable {\r\n        // 2 line address and phone are optional\r\n        require(productExists[_id], 'Product must exist to be purchased');\r\n        require(bytes(_nameSurname).length > 0, 'Name and Surname must be set');\r\n        require(bytes(_lineOneDirection).length > 0, 'Line one direction must be set');\r\n        require(_city.length > 0, 'City must be set');\r\n        require(_stateRegion.length > 0, 'State or region must be set');\r\n        require(_postalCode > 0, 'Postal code must be set');\r\n        require(_country > 0, 'Country must be set');\r\n\r\n        Product memory p = productById[_id];\r\n\r\n        Order memory newOrder = Order(\r\n            _id, \r\n            _nameSurname,\r\n            _lineOneDirection,\r\n            _lineTwoDirection,\r\n            _city,\r\n            _stateRegion,\r\n            _postalCode,\r\n            _country,\r\n            _phone,\r\n            'pending'\r\n        );\r\n        require(msg.value >= p.price, 'Payment must be equal to or larger than price');\r\n\r\n        // Return the excess ETH sent by the buyer\r\n        if(msg.value > p.price) msg.sender.transfer(msg.value - p.price);\r\n        \r\n        pendingSellerOrders[p.owner].push(newOrder);\r\n        pendingBuyerOrders[msg.sender].push(newOrder);\r\n        orders.push(newOrder);\r\n        orderById[_id] = newOrder;\r\n        lastPendingSellerOrder = pendingSellerOrders[p.owner].length > 0 ? pendingSellerOrders[p.owner].length - 1 : 0;\r\n        lastPendingBuyerOrder = pendingBuyerOrders[p.owner].length > 0 ? pendingBuyerOrders[p.owner].length - 1 : 0;\r\n\r\n        //Transfer token to new owner\r\n        EcommerceToken(token).transferFrom(p.owner, msg.sender, _id);\r\n        p.owner.transfer(p.price);\r\n    }\r\n\r\n    //To mark an order completed\r\n    function markOrderCompleted(uint256 _id) public {\r\n        Order memory order = orderById[_id];\r\n        Product memory product = productById[_id];\r\n        require(product.owner == msg.sender, 'Only seller can mark order as completed');\r\n        order.state = 'completed';\r\n\r\n        // Delete seller order from the array of pending order\r\n        for(uint256 i = 0; i < pendingSellerOrders[product.owner].length; i++) {\r\n            if(pendingSellerOrders[product.owner][i].id == _id) {\r\n                Order memory lastElement = orderById[lastPendingSellerOrder];\r\n                pendingSellerOrders[product.owner][i] = lastElement;\r\n                pendingSellerOrders[product.owner].length--;\r\n                lastPendingSellerOrder--;\r\n            }\r\n        }\r\n\r\n        // Delete the buyer order from the array of the pending orders\r\n        for(uint256 i = 0; i < pendingBuyerOrders[msg.sender].length; i++) {\r\n            if(pendingBuyerOrders[msg.sender][i].id == order.id) {\r\n                Order memory lastElement = orderById[lastPendingBuyerOrder];\r\n                pendingBuyerOrders[msg.sender][i] = lastElement;\r\n                pendingBuyerOrders[msg.sender].length--;\r\n                lastPendingBuyerOrder--;\r\n            }\r\n        }\r\n        completedSellerOrders[product.owner].push(order);\r\n        completedBuyerOrders[msg.sender].push(order);\r\n        orderById[_id] = order;\r\n    }\r\n\r\n    // Get lastest product ids so that we can get each product independently\r\n    function getLatestProductIds(uint256 _amount) public view returns(uint256[] memory) {\r\n        //If more products requested than available, return available\r\n        uint256 length = products.length;\r\n        uint256 counter = (_amount > length) ? length : _amount;\r\n        uint256 condition = (_amount > length) ? 0 : (length - _amount);\r\n        uint256[] memory ids = new uint256[](_amount > length ? _amount : length);\r\n        uint256 increment = 0;\r\n\r\n        //Loop backwards to get the most recent products first\r\n        for(int256 i = int256(counter); i >= int256(condition); i--) {\r\n            ids[increment] = products[uint256(i)].id;\r\n        }\r\n        return ids;\r\n    }\r\n\r\n    // To get a single product broken down by properties\r\n    function getProduct(uint256 _id) public view returns (\r\n        uint256 id,\r\n        string memory title,\r\n        string memory description,\r\n        uint256 date,\r\n        address payable owner,\r\n        uint256 price,\r\n        string memory image\r\n    ) {\r\n        Product memory p = productById[_id];\r\n        id = p.id;\r\n        title = p.title;\r\n        description = p.description;\r\n        date = p.date;\r\n        owner = p.owner;\r\n        price = p.price;\r\n        image = p.image;\r\n    }\r\n\r\n    // To get latest ids for a specific type of order\r\n    function getLatestOrderIds(\r\n        string memory _type, \r\n        address _owner, \r\n        uint256 _amount\r\n    ) public view returns (uint256[] memory) {\r\n        // If you're requesting more than available, return only available\r\n        uint256 length;\r\n        uint256 counter;\r\n        uint256 condition;\r\n        uint256[] memory ids;\r\n        uint256 increment = 0;\r\n\r\n        if(compareStrings(_type, 'pending-seller')) {\r\n            length = pendingSellerOrders[_owner].length;\r\n            counter = (_amount > length) ? length : _amount;\r\n            condition = (_amount > length) ? 0 : (length - _amount);\r\n            ids = new uint256[](_amount > length ? _amount : length);\r\n\r\n            for(int256 i = int256(counter); i >= int256(condition); i--) {\r\n                ids[increment] = uint256(pendingSellerOrders[_owner][uint256(i)].id);\r\n            }\r\n        } else if(compareStrings(_type, 'pending-buyer')) {\r\n            length = pendingBuyerOrders[_owner].length;\r\n            counter = (_amount > length) ? length : _amount;\r\n            condition = (_amount > length) ? 0 : (length - _amount);\r\n            ids = new uint256[](_amount > length ? _amount : length);\r\n\r\n            for(int256 i = int256(counter); i >= int256(condition); i--) {\r\n                ids[increment] = uint256(pendingBuyerOrders[_owner][uint256(i)].id);\r\n            }\r\n        } else if(compareStrings(_type, 'completed-seller')) {\r\n            length = completedSellerOrders[_owner].length;\r\n            counter = (_amount > length) ? length : _amount;\r\n            condition = (_amount > length) ? 0 : (length - _amount);\r\n            ids = new uint256[](_amount > length ? _amount : length);\r\n\r\n            for(int256 i = int256(counter); i >= int256(condition); i--) {\r\n                ids[increment] = uint256(completedSellerOrders[_owner][uint256(i)].id);\r\n            }\r\n        } else if(compareStrings(_type, 'completed-buyer')) {\r\n            length = completedBuyerOrders[_owner].length;\r\n            counter = (_amount > length) ? length : _amount;\r\n            condition = (_amount > length) ? 0 : (length - _amount);\r\n            ids = new uint256[](_amount > length ? _amount : length);\r\n\r\n            for(int256 i = int256(counter); i >= int256(condition); i--) {\r\n                ids[increment] = uint256(completedBuyerOrders[_owner][uint256(i)].id);\r\n            }\r\n        }\r\n\r\n        return ids;\r\n    }\r\n\r\n    // To get individual orders with all parameters\r\n    function getOrder(\r\n        string memory _type, \r\n        address _owner, \r\n        uint256 _id\r\n    ) public view returns(\r\n        uint256 id,\r\n        string memory nameSurname,\r\n        string memory lineOneDirection,\r\n        string memory lineTwoDirection,\r\n        bytes32 city,\r\n        bytes32 stateRegion,\r\n        uint256 postalCode,\r\n        bytes32 country,\r\n        uint256 phone,\r\n        string memory state\r\n    ) {\r\n        Order memory o;\r\n\r\n        if(compareStrings(_type, 'pending-seller')) {\r\n            o = pendingSellerOrders[_owner][_id];\r\n        } else if (compareStrings(_type, 'pending-buyer')) {\r\n            o = pendingBuyerOrders[_owner][_id];\r\n        } else if (compareStrings(_type, 'completed-seller')) {\r\n            o = completedSellerOrders[_owner][_id];\r\n        } else if (compareStrings(_type, 'completed-buyer')) {\r\n            o = completedBuyerOrders[_owner][_id];\r\n        }\r\n\r\n        id = o.id;\r\n        nameSurname = o.nameSurname;\r\n        lineOneDirection = o.lineOneDirection;\r\n        lineTwoDirection = o.lineTwoDirection;\r\n        city = o.city;\r\n        stateRegion = o.stateRegion;\r\n        postalCode = o.postalCode;\r\n        country = o.country;\r\n        phone = o.phone;\r\n        state = o.state;\r\n    }\r\n\r\n    // To compare 2 strings since we can't use normal operator\r\n    function compareStrings(string memory a, string memory b) public pure returns (bool) {\r\n        return keccak256(abi.encodePacked(a)) == keccak256(abi.encodePacked(b));\r\n    }\r\n}",
  "sourcePath": "C:/Users/edwar/ecommerce-dapp/contracts/Ecommerce.sol",
  "compiler": {
    "name": "solc",
    "version": "0.5.8+commit.23d335f2.Emscripten.clang"
  },
  "schemaVersion": "3.0.16",
  "updatedAt": "2020-08-21T09:26:56.778Z",
  "devdoc": {
    "methods": {}
  },
  "userdoc": {
    "methods": {}
  }
}