{
  "contractName": "EcommerceToken",
  "abi": [
    {
      "constant": true,
      "inputs": [
        {
          "name": "interfaceId",
          "type": "bytes4"
        }
      ],
      "name": "supportsInterface",
      "outputs": [
        {
          "name": "",
          "type": "bool"
        }
      ],
      "payable": false,
      "stateMutability": "view",
      "type": "function"
    },
    {
      "constant": true,
      "inputs": [
        {
          "name": "tokenId",
          "type": "uint256"
        }
      ],
      "name": "getApproved",
      "outputs": [
        {
          "name": "",
          "type": "address"
        }
      ],
      "payable": false,
      "stateMutability": "view",
      "type": "function"
    },
    {
      "constant": false,
      "inputs": [
        {
          "name": "to",
          "type": "address"
        },
        {
          "name": "tokenId",
          "type": "uint256"
        }
      ],
      "name": "approve",
      "outputs": [],
      "payable": false,
      "stateMutability": "nonpayable",
      "type": "function"
    },
    {
      "constant": false,
      "inputs": [
        {
          "name": "from",
          "type": "address"
        },
        {
          "name": "to",
          "type": "address"
        },
        {
          "name": "tokenId",
          "type": "uint256"
        }
      ],
      "name": "transferFrom",
      "outputs": [],
      "payable": false,
      "stateMutability": "nonpayable",
      "type": "function"
    },
    {
      "constant": false,
      "inputs": [
        {
          "name": "from",
          "type": "address"
        },
        {
          "name": "to",
          "type": "address"
        },
        {
          "name": "tokenId",
          "type": "uint256"
        }
      ],
      "name": "safeTransferFrom",
      "outputs": [],
      "payable": false,
      "stateMutability": "nonpayable",
      "type": "function"
    },
    {
      "constant": true,
      "inputs": [
        {
          "name": "tokenId",
          "type": "uint256"
        }
      ],
      "name": "ownerOf",
      "outputs": [
        {
          "name": "",
          "type": "address"
        }
      ],
      "payable": false,
      "stateMutability": "view",
      "type": "function"
    },
    {
      "constant": true,
      "inputs": [
        {
          "name": "owner",
          "type": "address"
        }
      ],
      "name": "balanceOf",
      "outputs": [
        {
          "name": "",
          "type": "uint256"
        }
      ],
      "payable": false,
      "stateMutability": "view",
      "type": "function"
    },
    {
      "constant": false,
      "inputs": [
        {
          "name": "to",
          "type": "address"
        },
        {
          "name": "approved",
          "type": "bool"
        }
      ],
      "name": "setApprovalForAll",
      "outputs": [],
      "payable": false,
      "stateMutability": "nonpayable",
      "type": "function"
    },
    {
      "constant": false,
      "inputs": [
        {
          "name": "from",
          "type": "address"
        },
        {
          "name": "to",
          "type": "address"
        },
        {
          "name": "tokenId",
          "type": "uint256"
        },
        {
          "name": "_data",
          "type": "bytes"
        }
      ],
      "name": "safeTransferFrom",
      "outputs": [],
      "payable": false,
      "stateMutability": "nonpayable",
      "type": "function"
    },
    {
      "constant": true,
      "inputs": [],
      "name": "isEcommerceSet",
      "outputs": [
        {
          "name": "",
          "type": "bool"
        }
      ],
      "payable": false,
      "stateMutability": "view",
      "type": "function"
    },
    {
      "constant": true,
      "inputs": [
        {
          "name": "owner",
          "type": "address"
        },
        {
          "name": "operator",
          "type": "address"
        }
      ],
      "name": "isApprovedForAll",
      "outputs": [
        {
          "name": "",
          "type": "bool"
        }
      ],
      "payable": false,
      "stateMutability": "view",
      "type": "function"
    },
    {
      "constant": true,
      "inputs": [],
      "name": "ecommerce",
      "outputs": [
        {
          "name": "",
          "type": "address"
        }
      ],
      "payable": false,
      "stateMutability": "view",
      "type": "function"
    },
    {
      "anonymous": false,
      "inputs": [
        {
          "indexed": true,
          "name": "from",
          "type": "address"
        },
        {
          "indexed": true,
          "name": "to",
          "type": "address"
        },
        {
          "indexed": true,
          "name": "tokenId",
          "type": "uint256"
        }
      ],
      "name": "Transfer",
      "type": "event"
    },
    {
      "anonymous": false,
      "inputs": [
        {
          "indexed": true,
          "name": "owner",
          "type": "address"
        },
        {
          "indexed": true,
          "name": "approved",
          "type": "address"
        },
        {
          "indexed": true,
          "name": "tokenId",
          "type": "uint256"
        }
      ],
      "name": "Approval",
      "type": "event"
    },
    {
      "anonymous": false,
      "inputs": [
        {
          "indexed": true,
          "name": "owner",
          "type": "address"
        },
        {
          "indexed": true,
          "name": "operator",
          "type": "address"
        },
        {
          "indexed": false,
          "name": "approved",
          "type": "bool"
        }
      ],
      "name": "ApprovalForAll",
      "type": "event"
    },
    {
      "constant": false,
      "inputs": [
        {
          "name": "_to",
          "type": "address"
        },
        {
          "name": "_tokenId",
          "type": "uint256"
        }
      ],
      "name": "mint",
      "outputs": [],
      "payable": false,
      "stateMutability": "nonpayable",
      "type": "function"
    },
    {
      "constant": false,
      "inputs": [
        {
          "name": "_ecommerce",
          "type": "address"
        }
      ],
      "name": "setEcommerce",
      "outputs": [],
      "payable": false,
      "stateMutability": "nonpayable",
      "type": "function"
    }
  ],
  "bytecode": "0x60806040526000600560146101000a81548160ff0219169083151502179055506100356301ffc9a760e01b61005060201b60201c565b61004b6380ac58cd60e01b61005060201b60201c565b6100ef565b63ffffffff60e01b817bffffffffffffffffffffffffffffffffffffffffffffffffffffffff1916141561008357600080fd5b6001600080837bffffffffffffffffffffffffffffffffffffffffffffffffffffffff19167bffffffffffffffffffffffffffffffffffffffffffffffffffffffff1916815260200190815260200160002060006101000a81548160ff02191690831515021790555050565b6115a9806100fe6000396000f3fe608060405234801561001057600080fd5b50600436106100ea5760003560e01c806370a082311161008c578063b88d4fde11610066578063b88d4fde14610494578063dbbb58a414610599578063e985e9c5146105bb578063f2b87c0d14610637576100ea565b806370a08231146103a8578063a22cb46514610400578063b58aeed414610450576100ea565b806323b872dd116100c857806323b872dd1461021057806340c10f191461027e57806342842e0e146102cc5780636352211e1461033a576100ea565b806301ffc9a7146100ef578063081812fc14610154578063095ea7b3146101c2575b600080fd5b61013a6004803603602081101561010557600080fd5b8101908080357bffffffffffffffffffffffffffffffffffffffffffffffffffffffff19169060200190929190505050610681565b604051808215151515815260200191505060405180910390f35b6101806004803603602081101561016a57600080fd5b81019080803590602001909291905050506106e8565b604051808273ffffffffffffffffffffffffffffffffffffffff1673ffffffffffffffffffffffffffffffffffffffff16815260200191505060405180910390f35b61020e600480360360408110156101d857600080fd5b81019080803573ffffffffffffffffffffffffffffffffffffffff16906020019092919080359060200190929190505050610737565b005b61027c6004803603606081101561022657600080fd5b81019080803573ffffffffffffffffffffffffffffffffffffffff169060200190929190803573ffffffffffffffffffffffffffffffffffffffff16906020019092919080359060200190929190505050610878565b005b6102ca6004803603604081101561029457600080fd5b81019080803573ffffffffffffffffffffffffffffffffffffffff1690602001909291908035906020019092919050505061089b565b005b610338600480360360608110156102e257600080fd5b81019080803573ffffffffffffffffffffffffffffffffffffffff169060200190929190803573ffffffffffffffffffffffffffffffffffffffff1690602001909291908035906020019092919050505061096c565b005b6103666004803603602081101561035057600080fd5b810190808035906020019092919050505061098c565b604051808273ffffffffffffffffffffffffffffffffffffffff1673ffffffffffffffffffffffffffffffffffffffff16815260200191505060405180910390f35b6103ea600480360360208110156103be57600080fd5b81019080803573ffffffffffffffffffffffffffffffffffffffff169060200190929190505050610a08565b6040518082815260200191505060405180910390f35b61044e6004803603604081101561041657600080fd5b81019080803573ffffffffffffffffffffffffffffffffffffffff169060200190929190803515159060200190929190505050610a91565b005b6104926004803603602081101561046657600080fd5b81019080803573ffffffffffffffffffffffffffffffffffffffff169060200190929190505050610bcb565b005b610597600480360360808110156104aa57600080fd5b81019080803573ffffffffffffffffffffffffffffffffffffffff169060200190929190803573ffffffffffffffffffffffffffffffffffffffff169060200190929190803590602001909291908035906020019064010000000081111561051157600080fd5b82018360208201111561052357600080fd5b8035906020019184600183028401116401000000008311171561054557600080fd5b91908080601f016020809104026020016040519081016040528093929190818152602001838380828437600081840152601f19601f820116905080830192505050505050509192919290505050610d33565b005b6105a1610d59565b604051808215151515815260200191505060405180910390f35b61061d600480360360408110156105d157600080fd5b81019080803573ffffffffffffffffffffffffffffffffffffffff169060200190929190803573ffffffffffffffffffffffffffffffffffffffff169060200190929190505050610d6c565b604051808215151515815260200191505060405180910390f35b61063f610e00565b604051808273ffffffffffffffffffffffffffffffffffffffff1673ffffffffffffffffffffffffffffffffffffffff16815260200191505060405180910390f35b6000806000837bffffffffffffffffffffffffffffffffffffffffffffffffffffffff19167bffffffffffffffffffffffffffffffffffffffffffffffffffffffff1916815260200190815260200160002060009054906101000a900460ff169050919050565b60006106f382610e26565b6106fc57600080fd5b6002600083815260200190815260200160002060009054906101000a900473ffffffffffffffffffffffffffffffffffffffff169050919050565b60006107428261098c565b90508073ffffffffffffffffffffffffffffffffffffffff168373ffffffffffffffffffffffffffffffffffffffff16141561077d57600080fd5b8073ffffffffffffffffffffffffffffffffffffffff163373ffffffffffffffffffffffffffffffffffffffff1614806107bd57506107bc8133610d6c565b5b6107c657600080fd5b826002600084815260200190815260200160002060006101000a81548173ffffffffffffffffffffffffffffffffffffffff021916908373ffffffffffffffffffffffffffffffffffffffff160217905550818373ffffffffffffffffffffffffffffffffffffffff168273ffffffffffffffffffffffffffffffffffffffff167f8c5be1e5ebec7d5bd14f71427d1e84f3dd0314c0f7b2291e5b200ac8c7c3b92560405160405180910390a4505050565b6108823382610e98565b61088b57600080fd5b610896838383610f2d565b505050565b600560009054906101000a900473ffffffffffffffffffffffffffffffffffffffff1673ffffffffffffffffffffffffffffffffffffffff163373ffffffffffffffffffffffffffffffffffffffff161461095e576040517f08c379a00000000000000000000000000000000000000000000000000000000081526004018080602001828103825260208152602001807f4f6e6c7920636f6e74726163742063616e206d696e74206e657720746f6b656e81525060200191505060405180910390fd5b61096882826110f0565b5050565b61098783838360405180602001604052806000815250610d33565b505050565b6000806001600084815260200190815260200160002060009054906101000a900473ffffffffffffffffffffffffffffffffffffffff169050600073ffffffffffffffffffffffffffffffffffffffff168173ffffffffffffffffffffffffffffffffffffffff1614156109ff57600080fd5b80915050919050565b60008073ffffffffffffffffffffffffffffffffffffffff168273ffffffffffffffffffffffffffffffffffffffff161415610a4357600080fd5b610a8a600360008473ffffffffffffffffffffffffffffffffffffffff1673ffffffffffffffffffffffffffffffffffffffff168152602001908152602001600020611236565b9050919050565b3373ffffffffffffffffffffffffffffffffffffffff168273ffffffffffffffffffffffffffffffffffffffff161415610aca57600080fd5b80600460003373ffffffffffffffffffffffffffffffffffffffff1673ffffffffffffffffffffffffffffffffffffffff16815260200190815260200160002060008473ffffffffffffffffffffffffffffffffffffffff1673ffffffffffffffffffffffffffffffffffffffff16815260200190815260200160002060006101000a81548160ff0219169083151502179055508173ffffffffffffffffffffffffffffffffffffffff163373ffffffffffffffffffffffffffffffffffffffff167f17307eab39ab6107e8899845ad3d59bd9653f200f220920489ca2b5937696c3183604051808215151515815260200191505060405180910390a35050565b600560149054906101000a900460ff1615610c31576040517f08c379a00000000000000000000000000000000000000000000000000000000081526004018080602001828103825260268152602001806115586026913960400191505060405180910390fd5b600073ffffffffffffffffffffffffffffffffffffffff168173ffffffffffffffffffffffffffffffffffffffff161415610cd4576040517f08c379a00000000000000000000000000000000000000000000000000000000081526004018080602001828103825260178152602001807f416464726573732063616e6e6f7420626520656d70747900000000000000000081525060200191505060405180910390fd5b6001600560146101000a81548160ff02191690831515021790555080600560006101000a81548173ffffffffffffffffffffffffffffffffffffffff021916908373ffffffffffffffffffffffffffffffffffffffff16021790555050565b610d3e848484610878565b610d4a84848484611244565b610d5357600080fd5b50505050565b600560149054906101000a900460ff1681565b6000600460008473ffffffffffffffffffffffffffffffffffffffff1673ffffffffffffffffffffffffffffffffffffffff16815260200190815260200160002060008373ffffffffffffffffffffffffffffffffffffffff1673ffffffffffffffffffffffffffffffffffffffff16815260200190815260200160002060009054906101000a900460ff16905092915050565b600560009054906101000a900473ffffffffffffffffffffffffffffffffffffffff1681565b6000806001600084815260200190815260200160002060009054906101000a900473ffffffffffffffffffffffffffffffffffffffff169050600073ffffffffffffffffffffffffffffffffffffffff168173ffffffffffffffffffffffffffffffffffffffff161415915050919050565b600080610ea48361098c565b90508073ffffffffffffffffffffffffffffffffffffffff168473ffffffffffffffffffffffffffffffffffffffff161480610f1357508373ffffffffffffffffffffffffffffffffffffffff16610efb846106e8565b73ffffffffffffffffffffffffffffffffffffffff16145b80610f245750610f238185610d6c565b5b91505092915050565b8273ffffffffffffffffffffffffffffffffffffffff16610f4d8261098c565b73ffffffffffffffffffffffffffffffffffffffff1614610f6d57600080fd5b600073ffffffffffffffffffffffffffffffffffffffff168273ffffffffffffffffffffffffffffffffffffffff161415610fa757600080fd5b610fb08161142d565b610ff7600360008573ffffffffffffffffffffffffffffffffffffffff1673ffffffffffffffffffffffffffffffffffffffff1681526020019081526020016000206114eb565b61103e600360008473ffffffffffffffffffffffffffffffffffffffff1673ffffffffffffffffffffffffffffffffffffffff16815260200190815260200160002061150e565b816001600083815260200190815260200160002060006101000a81548173ffffffffffffffffffffffffffffffffffffffff021916908373ffffffffffffffffffffffffffffffffffffffff160217905550808273ffffffffffffffffffffffffffffffffffffffff168473ffffffffffffffffffffffffffffffffffffffff167fddf252ad1be2c89b69c2b068fc378daa952ba7f163c4a11628f55a4df523b3ef60405160405180910390a4505050565b600073ffffffffffffffffffffffffffffffffffffffff168273ffffffffffffffffffffffffffffffffffffffff16141561112a57600080fd5b61113381610e26565b1561113d57600080fd5b816001600083815260200190815260200160002060006101000a81548173ffffffffffffffffffffffffffffffffffffffff021916908373ffffffffffffffffffffffffffffffffffffffff1602179055506111d6600360008473ffffffffffffffffffffffffffffffffffffffff1673ffffffffffffffffffffffffffffffffffffffff16815260200190815260200160002061150e565b808273ffffffffffffffffffffffffffffffffffffffff16600073ffffffffffffffffffffffffffffffffffffffff167fddf252ad1be2c89b69c2b068fc378daa952ba7f163c4a11628f55a4df523b3ef60405160405180910390a45050565b600081600001549050919050565b60006112658473ffffffffffffffffffffffffffffffffffffffff16611524565b6112725760019050611425565b60008473ffffffffffffffffffffffffffffffffffffffff1663150b7a02338887876040518563ffffffff1660e01b8152600401808573ffffffffffffffffffffffffffffffffffffffff1673ffffffffffffffffffffffffffffffffffffffff1681526020018473ffffffffffffffffffffffffffffffffffffffff1673ffffffffffffffffffffffffffffffffffffffff16815260200183815260200180602001828103825283818151815260200191508051906020019080838360005b8381101561134d578082015181840152602081019050611332565b50505050905090810190601f16801561137a5780820380516001836020036101000a031916815260200191505b5095505050505050602060405180830381600087803b15801561139c57600080fd5b505af11580156113b0573d6000803e3d6000fd5b505050506040513d60208110156113c657600080fd5b8101908080519060200190929190505050905063150b7a0260e01b7bffffffffffffffffffffffffffffffffffffffffffffffffffffffff1916817bffffffffffffffffffffffffffffffffffffffffffffffffffffffff1916149150505b949350505050565b600073ffffffffffffffffffffffffffffffffffffffff166002600083815260200190815260200160002060009054906101000a900473ffffffffffffffffffffffffffffffffffffffff1673ffffffffffffffffffffffffffffffffffffffff16146114e85760006002600083815260200190815260200160002060006101000a81548173ffffffffffffffffffffffffffffffffffffffff021916908373ffffffffffffffffffffffffffffffffffffffff1602179055505b50565b6115036001826000015461153790919063ffffffff16565b816000018190555050565b6001816000016000828254019250508190555050565b600080823b905060008111915050919050565b60008282111561154657600080fd5b60008284039050809150509291505056fe45636f6d6d6572636520616464726573732063616e206f6e6c7920626520736574206f6e6365a165627a7a72305820bf91bfb9aa654ccefd7614fe20a7c748890ca510682baa0a7c1fa9a37a31d5b50029",
  "source": "pragma solidity ^0.5.0;\r\n\r\nimport './ERC721.sol';\r\n\r\n//E-commerce token that implements the ERC721 token with mint function\r\ncontract EcommerceToken is ERC721 {\r\n    address public ecommerce;\r\n    bool public isEcommerceSet = false;\r\n    \r\n    //generate new token for the specified address\r\n    function mint(address _to, uint256 _tokenId) public {\r\n        require(msg.sender == ecommerce, 'Only contract can mint new token');\r\n        _mint(_to, _tokenId);\r\n    }\r\n\r\n    //Set ecommerce smart contract address\r\n    function setEcommerce(address _ecommerce) public {\r\n        require(!isEcommerceSet, 'Ecommerce address can only be set once');\r\n        require(_ecommerce != address(0), 'Address cannot be empty');\r\n        isEcommerceSet = true;\r\n        ecommerce = _ecommerce;\r\n    }\r\n}\r\n\r\n// Main ecommerce contract to buy and sell ERC-721 tokens\r\n// Representing physical or digital products.\r\ncontract Ecommerce {\r\n    struct Product {\r\n        uint256 id;\r\n        string title;\r\n        string description;\r\n        uint256 date;\r\n        address payable owner;\r\n        uint256 price;\r\n        string image;\r\n    }\r\n\r\n    struct Order {\r\n        uint256 id;\r\n        string nameSurname;\r\n        string lineOneDirection;\r\n        string lineTwoDirection;\r\n        bytes32 city;\r\n        bytes32 stateRegion;\r\n        uint256 postalCode;\r\n        bytes32 country;\r\n        uint256 phone;\r\n        string state; //'pending'/'completed\r\n    }\r\n\r\n    //Seller address => products\r\n    //Published products by the seller\r\n    mapping(address => Product[]) public sellerProducts;\r\n    // Products waiting to be fulfilled by the seller, used by\r\n    //seller to check which orders have to be fulfilled\r\n    mapping(address => Order[]) public pendingSellerOrders;\r\n\r\n    // Buyer address => products\r\n    // Products buyer purchased waiting to be sent\r\n    mapping(address => Order[]) public pendingBuyerOrders;\r\n\r\n    // Seller address => products\r\n    // History of past orders fulfilled by the seller\r\n    mapping(address => Order[]) public completedSellerOrders;\r\n\r\n    // Buyer address => products\r\n    // History of past orders made by buyer\r\n    mapping(address => Order[]) public completedBuyerOrders;\r\n\r\n    //Product Id => product\r\n    mapping(uint256 => Product) public productById;\r\n\r\n    // ProductId => Order\r\n    mapping(uint256 => Order) public orderById;\r\n\r\n    // Product id => true/false\r\n    mapping(uint256 => bool) public productExists;\r\n\r\n    Product[] public products;\r\n    Order[] public orders;\r\n    uint256 public lastId;\r\n    address public token;\r\n    uint256 public lastPendingSellerOrder;\r\n    uint256 public lastPendingBuyerOrder;\r\n\r\n    //To setup the address of the ERC721 token to use for this contract\r\n    constructor(address _token) public {\r\n        token = _token;\r\n    }\r\n\r\n    // To publish a product as a seller\r\n    function publishProduct(\r\n        string memory _title,\r\n        string memory _description,\r\n        uint256 _price,\r\n        string memory _image\r\n    ) public {\r\n        require(bytes(_title).length > 0,'Title cannot be empty');\r\n        require(bytes(_description).length > 0, 'description cannot be empty');\r\n        require(_price > 0, 'price cannot be empty');\r\n        require(bytes(_image).length > 0, 'Image cannot be empty');\r\n\r\n        Product memory p = Product(\r\n            lastId, \r\n            _title, \r\n            _description, \r\n            now, \r\n            msg.sender, \r\n            _price * 1e18, \r\n            _image\r\n        );\r\n        products.push(p);\r\n        sellerProducts[msg.sender].push(p);\r\n        productById[lastId] = p;\r\n        productExists[lastId] = true;\r\n        //Create new token for this product which will be owned\r\n        // by the contract until sold\r\n        EcommerceToken(token).mint(address(this), lastId);\r\n        lastId++;\r\n    }\r\n\r\n    // To buy a product, seller must authorize contract\r\n    // to manage the token\r\n    function buyProduct(\r\n        uint256 _id,\r\n        string memory _nameSurname,\r\n        string memory _lineOneDirection,\r\n        string memory _lineTwoDirection,\r\n        bytes32 _city,\r\n        bytes32 _stateRegion,\r\n        uint256 _postalCode,\r\n        bytes32 _country,\r\n        uint256 _phone\r\n    ) public payable {\r\n        // 2 line address and phone are optional\r\n        require(productExists[_id], 'Product must exist to be purchased');\r\n        require(bytes(_nameSurname).length > 0, 'Name and Surname must be set');\r\n        require(bytes(_lineOneDirection).length > 0, 'Line one direction must be set');\r\n        require(_city.length > 0, 'City must be set');\r\n        require(_stateRegion.length > 0, 'State or region must be set');\r\n        require(_postalCode > 0, 'Postal code must be set');\r\n        require(_country > 0, 'Country must be set');\r\n\r\n        Product memory p = productById[_id];\r\n\r\n        Order memory newOrder = Order(\r\n            _id, \r\n            _nameSurname,\r\n            _lineOneDirection,\r\n            _lineTwoDirection,\r\n            _city,\r\n            _stateRegion,\r\n            _postalCode,\r\n            _country,\r\n            _phone,\r\n            'pending'\r\n        );\r\n        require(msg.value >= p.price, 'Payment must be equal to or larger than price');\r\n\r\n        // Return the excess ETH sent by the buyer\r\n        if(msg.value > p.price) msg.sender.transfer(msg.value - p.price);\r\n        \r\n        pendingSellerOrders[p.owner].push(newOrder);\r\n        pendingBuyerOrders[msg.sender].push(newOrder);\r\n        orders.push(newOrder);\r\n        orderById[_id] = newOrder;\r\n        lastPendingSellerOrder = pendingSellerOrders[p.owner].length > 0 ? pendingSellerOrders[p.owner].length - 1 : 0;\r\n        lastPendingBuyerOrder = pendingBuyerOrders[p.owner].length > 0 ? pendingBuyerOrders[p.owner].length - 1 : 0;\r\n\r\n        //Transfer token to new owner\r\n        EcommerceToken(token).transferFrom(p.owner, msg.sender, _id);\r\n        p.owner.transfer(p.price);\r\n    }\r\n\r\n    //To mark an order completed\r\n    function markOrderCompleted(uint256 _id) public {\r\n        Order memory order = orderById[_id];\r\n        Product memory product = productById[_id];\r\n        require(product.owner == msg.sender, 'Only seller can mark order as completed');\r\n        order.state = 'completed';\r\n\r\n        // Delete seller order from the array of pending order\r\n        for(uint256 i = 0; i < pendingSellerOrders[product.owner].length; i++) {\r\n            if(pendingSellerOrders[product.owner][i].id == _id) {\r\n                Order memory lastElement = orderById[lastPendingSellerOrder];\r\n                pendingSellerOrders[product.owner][i] = lastElement;\r\n                pendingSellerOrders[product.owner].length--;\r\n                lastPendingSellerOrder--;\r\n            }\r\n        }\r\n\r\n        // Delete the buyer order from the array of the pending orders\r\n        for(uint256 i = 0; i < pendingBuyerOrders[msg.sender].length; i++) {\r\n            if(pendingBuyerOrders[msg.sender][i].id == order.id) {\r\n                Order memory lastElement = orderById[lastPendingBuyerOrder];\r\n                pendingBuyerOrders[msg.sender][i] = lastElement;\r\n                pendingBuyerOrders[msg.sender].length--;\r\n                lastPendingBuyerOrder--;\r\n            }\r\n        }\r\n        completedSellerOrders[product.owner].push(order);\r\n        completedBuyerOrders[msg.sender].push(order);\r\n        orderById[_id] = order;\r\n    }\r\n\r\n    // Get lastest product ids so that we can get each product independently\r\n    function getLatestProductIds(uint256 _amount) public view returns(uint256[] memory) {\r\n        //If more products requested than available, return available\r\n        uint256 length = products.length;\r\n        uint256 counter = (_amount > length) ? length : _amount;\r\n        uint256 condition = (_amount > length) ? 0 : (length - _amount);\r\n        uint256[] memory ids = new uint256[](_amount > length ? _amount : length);\r\n        uint256 increment = 0;\r\n\r\n        //Loop backwards to get the most recent products first\r\n        for(int256 i = int256(counter); i >= int256(condition); i--) {\r\n            ids[increment] = products[uint256(i)].id;\r\n        }\r\n        return ids;\r\n    }\r\n\r\n    // To get a single product broken down by properties\r\n    function getProduct(uint256 _id) public view returns (\r\n        uint256 id,\r\n        string memory title,\r\n        string memory description,\r\n        uint256 date,\r\n        address payable owner,\r\n        uint256 price,\r\n        string memory image\r\n    ) {\r\n        Product memory p = productById[_id];\r\n        id = p.id;\r\n        title = p.title;\r\n        description = p.description;\r\n        date = p.date;\r\n        owner = p.owner;\r\n        price = p.price;\r\n        image = p.image;\r\n    }\r\n\r\n    // To get latest ids for a specific type of order\r\n    function getLatestOrderIds(\r\n        string memory _type, \r\n        address _owner, \r\n        uint256 _amount\r\n    ) public view returns (uint256[] memory) {\r\n        // If you're requesting more than available, return only available\r\n        uint256 length;\r\n        uint256 counter;\r\n        uint256 condition;\r\n        uint256[] memory ids;\r\n        uint256 increment = 0;\r\n\r\n        if(compareStrings(_type, 'pending-seller')) {\r\n            length = pendingSellerOrders[_owner].length;\r\n            counter = (_amount > length) ? length : _amount;\r\n            condition = (_amount > length) ? 0 : (length - _amount);\r\n            ids = new uint256[](_amount > length ? _amount : length);\r\n\r\n            for(int256 i = int256(counter); i >= int256(condition); i--) {\r\n                ids[increment] = uint256(pendingSellerOrders[_owner][uint256(i)].id);\r\n            }\r\n        } else if(compareStrings(_type, 'pending-buyer')) {\r\n            length = pendingBuyerOrders[_owner].length;\r\n            counter = (_amount > length) ? length : _amount;\r\n            condition = (_amount > length) ? 0 : (length - _amount);\r\n            ids = new uint256[](_amount > length ? _amount : length);\r\n\r\n            for(int256 i = int256(counter); i >= int256(condition); i--) {\r\n                ids[increment] = uint256(pendingBuyerOrders[_owner][uint256(i)].id);\r\n            }\r\n        } else if(compareStrings(_type, 'completed-seller')) {\r\n            length = completedSellerOrders[_owner].length;\r\n            counter = (_amount > length) ? length : _amount;\r\n            condition = (_amount > length) ? 0 : (length - _amount);\r\n            ids = new uint256[](_amount > length ? _amount : length);\r\n\r\n            for(int256 i = int256(counter); i >= int256(condition); i--) {\r\n                ids[increment] = uint256(completedSellerOrders[_owner][uint256(i)].id);\r\n            }\r\n        } else if(compareStrings(_type, 'completed-buyer')) {\r\n            length = completedBuyerOrders[_owner].length;\r\n            counter = (_amount > length) ? length : _amount;\r\n            condition = (_amount > length) ? 0 : (length - _amount);\r\n            ids = new uint256[](_amount > length ? _amount : length);\r\n\r\n            for(int256 i = int256(counter); i >= int256(condition); i--) {\r\n                ids[increment] = uint256(completedBuyerOrders[_owner][uint256(i)].id);\r\n            }\r\n        }\r\n\r\n        return ids;\r\n    }\r\n\r\n    // To get individual orders with all parameters\r\n    function getOrder(\r\n        string memory _type, \r\n        address _owner, \r\n        uint256 _id\r\n    ) public view returns(\r\n        uint256 id,\r\n        string memory nameSurname,\r\n        string memory lineOneDirection,\r\n        string memory lineTwoDirection,\r\n        bytes32 city,\r\n        bytes32 stateRegion,\r\n        uint256 postalCode,\r\n        bytes32 country,\r\n        uint256 phone,\r\n        string memory state\r\n    ) {\r\n        Order memory o;\r\n\r\n        if(compareStrings(_type, 'pending-seller')) {\r\n            o = pendingSellerOrders[_owner][_id];\r\n        } else if (compareStrings(_type, 'pending-buyer')) {\r\n            o = pendingBuyerOrders[_owner][_id];\r\n        } else if (compareStrings(_type, 'completed-seller')) {\r\n            o = completedSellerOrders[_owner][_id];\r\n        } else if (compareStrings(_type, 'completed-buyer')) {\r\n            o = completedBuyerOrders[_owner][_id];\r\n        }\r\n\r\n        id = o.id;\r\n        nameSurname = o.nameSurname;\r\n        lineOneDirection = o.lineOneDirection;\r\n        lineTwoDirection = o.lineTwoDirection;\r\n        city = o.city;\r\n        stateRegion = o.stateRegion;\r\n        postalCode = o.postalCode;\r\n        country = o.country;\r\n        phone = o.phone;\r\n        state = o.state;\r\n    }\r\n\r\n    // To compare 2 strings since we can't use normal operator\r\n    function compareStrings(string memory a, string memory b) public pure returns (bool) {\r\n        return keccak256(abi.encodePacked(a)) == keccak256(abi.encodePacked(b));\r\n    }\r\n}",
  "sourcePath": "C:/Users/edwar/ecommerce-dapp/contracts/Ecommerce.sol",
  "compiler": {
    "name": "solc",
    "version": "0.5.8+commit.23d335f2.Emscripten.clang"
  },
  "schemaVersion": "3.0.16",
  "updatedAt": "2020-08-21T09:26:56.797Z",
  "devdoc": {
    "methods": {}
  },
  "userdoc": {
    "methods": {}
  }
}